:1080000000C00091780005FD6AC0F092000608E10A
:10801000009315060FEF0A950023E9F70091080673
:1080200005FFECC0E0E0F0E0079116910F3F19F476
:108030001F3F09F4E3C053C03091CF0137FDFCCF9F
:108040003BB72BBFF8012091CA0113E21093CA017C
:108050000A01E8952093CA013BBF08953BB72BBFA7
:10806000F8012091CA014093CA013DE930933400E0
:10807000E8952093CA013BBF089520E006D0E9F7B8
:108080000895259102D0E9F708952D9301501040ED
:10809000202F212B089584E39FE8FC010591149182
:1080A000FC013296A591B491FC013496259134914E
:1080B000422F432B19F0F901E4DF01C0DEDF069601
:1080C0001FE88034910748F3089501E70DBF00E2EF
:1080D0000EBFC4E2DAE20E944B400E942E41F092B1
:1080E000150600910020109101200A3A154511F063
:1080F0000C940000F0920020F092012000E2009326
:108100007800F6CFAA84998488847F806E805D8011
:108110004C80BB81AA8199818881F0E0EC0FFD1F22
:10812000EF010895BD01D801F90104C021912D93FB
:1081300041505040242F252BC9F7DB010895AA9206
:108140009A928A927A926A925A924A92BA93AA938D
:108150009A938A930895AF93BF93D80101900D929B
:1081600041505040D9F7BF91AF9108954091CA0155
:10817000E22FF32F0093CA0104914093CA0108959E
:1081800040E04BBFF80158ED54BF208308954A9555
:108190001AF0000F111FFBCF08954A951AF016959B
:1081A0000795FBCF0895FFFFFFFFFFFFFFFFFFFFD6
:1081B000FFFFFFFFFFFFFFFFFFFFFFFFFFFFFFFFCF
:1081C000FFFFFFFFFFFFFFFFFFFFFFFFFFFFFFFFBF
:1081D000FFFFFFFFFFFFFFFFFFFFFFFFFFFFFFFFAF
:1081E000FFFFFFFFFFFFFFFFFFFFFFFFFFFFFFFF9F
:1081F000FFFFFFFF0C945C450C94944566CF0FBFC6
:1082000008954FB7F8941095F0E0E02FE059FF4F34
:10821000008101230083042FF2CFB90198018B0163
:1082200063C361E078C3B90198018B019FC2CFC2DB
:1082300062E770E2260F371F0C94924068EE70E2FE
:10824000F9CFF8940AEA15E5E0E0F0E20083118343
:1082500020917900216009E739D0FFCF27E402EAB5
:1082600035D005D07894C9D303D4FFCFC8CF24E04C
:1082700001E42CD02DE126D0009362002CE122D025
:10828000009363000FB7F894E0E5F0E0108112600E
:108290001083ECDF0091510001FBE6F721E000E4E0
:1082A00015D0E6E5F0E00081097F008300E807874C
:1082B0000BEB008B008104600083E0E6008101602D
:1082C0000083089530E002E00C94B64010E00C9476
:1082D000C04000E00093EC2053D000919000009348
:1082E000E820009191000093E92000919200009312
:1082F000EA20009193000093EB200091D00101FB54
:1083000016F001E001C000E0DEC00ED2A6E0B1E24E
:10831000009106210076003289F5109107210C9119
:10832000569707FF0FC0125041F01A9529F526E025
:1083300030E09E968D0180D01DC0D49675D5E1F0B9
:1083400009951DC01A9521F01350B1F419D012C02F
:108350000091EC20002321F001E211E4929608C084
:1083600020E430E00FE211E267D00CEC11E49496C7
:108370000D931C9301E003C00FE05FD000E061C1EA
:1083800000C097D100E006A702E002AB00E004A322
:1083900005A302A303A30895F3DF10E08AD114AB71
:1083A00015ABEFE2F1E230812181203001E03007AE
:1083B00009F422C0203003E0300709F444C0213022
:1083C000300709F460C0203004E0300749F4A0D23F
:1083D00007FDFDCF40E200E0FDD277D200E073C0A0
:1083E0002330300721F401E00093EC20089523307E
:1083F000364009F457C05BC197D135D011F082D017
:1084000018C0ACE1B1E22D913C919D9720303040F5
:1084100019F403E012D002C02CD011F400E009C01E
:1084200020E038E007D00BE013E494960D931C9302
:1084300001E007C100E711E239C300931E210AE001
:1084400000932221089515D019F025D011F416D0EB
:108450002EC109D019F002E812E402C00DEA12E4BC
:1084600004AB15AB32C00091ED201091EE2001233A
:10847000089501E311E24DD00023089503E006A71B
:108480000AE002AB0895F5DF19F005D011F4F6DF2C
:108490000EC170D01AC0E0EFF0E222A533A5203063
:1084A00030400895EFE2F1E20281002359F40381A4
:1084B000013118F008E0C1DFFAC009D000E0F9D0BE
:1084C00006AB07AB02C00093ED2001E00895033036
:1084D00041F0023031F0043021F0053011F011E0AC
:1084E00001C010E01093EE2012E0019FF001E3566E
:1084F000FF4D6081F18106E111E2E62F48E050E096
:108500000C94AB4003E000931E2102E00093222173
:10851000CEC0BD01D8015C91F8010181402FC9D0C6
:1085200006AB57AB12961D9130E00C9120E006A0EF
:1085300017A020A431A4001511052205330520F051
:1085400008E09DDF00E007C0041B150B0F5F1F4F05
:1085500000AF11AF01E0DB01089576D040AD51AD21
:108560004AD09A9651D49B970995FD0120AD31AD23
:1085700061DF66C023D1A0EFB0E2FD0100AD11AD17
:10858000012B39F400E018EF00AF11AF80E098E064
:1085900010C0FD0100AD11AD202F212B59F1183075
:1085A00010F4C80102C080E098E0081B190B00AF6E
:1085B00011AFAC0120D062A5F3A5E62F099500E725
:1085C00011E207C0FD0126A937A92F5F3F4F26AB57
:1085D00037AB9C010197232BE1F2F80121918F0128
:1085E0002F3F81F305E000931E2100E013E4FD011D
:1085F00004AB15ABB0C326A937A900E711E2089573
:1086000058D026A907A9009370212093712122E058
:1086100030E010DF5ACF18D006A917A940AD51ADF0
:10862000202F2F73622F70E020E731E2260F371FD3
:108630009C96EAD39D97099500E0FD0104A305A34C
:1086400001E0A991B9910895BA93AA93A0EFB0E27D
:10865000FD010895009108210F770093C304089548
:1086600028D0208D018D0A9529F00A95A1F00A9550
:10867000B9F01DC0E0ECF0E2228930E072968F0183
:10868000DBDE17D013D320A131A10217130710F49A
:1086900000A311A31ACFE0ECF0E222813381EFCFE7
:1086A000222329F424E030E004EE10E2E9CF00E0D8
:1086B0000895E0EFF0E2089537D0FBDF06890F71EF
:1086C00089F51789068907FF14C0112329F0165070
:1086D00041F0125041F026C022E030E000E719E2FC
:1086E00006C0BEDF20C021E030E002E719E2A4DED0
:1086F00017C0155019F0145031F014C00AE213E4F9
:1087000002A313A30DC001E010E0A0E7B9E20D93AE
:108710001C93008D00937229002311F0DADD03C051
:1087200001E001C000E08DCFBA93AA930895C1DFA4
:1087300000E000A301A302A303A304A305A30689E9
:1087400007FF03C0B3D2012B81F000910621007610
:1087500019F4B2DF002341F4009106210F710130BA
:1087600021F4D3DD002309F0B0CEA1CFB90161D04F
:10877000208127FDFDCFECEC208128602083105F55
:1087800098018B0159DDECECF1E00081077F98CD79
:1087900015D0C801A22FB091CA0141D04AD00081A2
:1087A00007FDFDCF0DD09093C1018093C001A09330
:1087B000C40105E341D0B093CA01CDC20C94A640D8
:1087C00003E30093CA0100E00093C20108950E94F0
:1087D000A440C801D9012A010DC08D0133D045E064
:1087E0008C010E94CD4049D08096909600EE400EBC
:1087F0000FEF501E042D052979F0082F0F7129F471
:1088000000E2401600E0500640F72D918C01C0DFD9
:1088100001960FEF400EEDCFE6E00C94874009D0B3
:10882000008107FDFDCF008101FF02C006E304D0F7
:108830000895EFECF1E008950093CA0121E00BECFC
:1088400011E045CD3091CA012091CF0127FDFCCF29
:1088500023E32093CA0120E02093C2012093C101A9
:108860002093C001F80141918F014093C4012395E9
:108870002032B0F33093CA0108958A93DADF108171
:1088800017FDFDCF10E2019F9EDF1092C101009203
:10889000C0018091CA0105E322C09A938A93802F78
:1088A0009091CA01BCDF34D007FDFDCF89DF009372
:1088B000C1010093C0018093C40103950032C8F345
:1088C0009093CA018991999108958A930FEFE5DFFA
:1088D000B0DF008107FDFDCF8091CA0100E3ACDF6E
:1088E0008093CA0189910895BC01C80111D007FD88
:1088F000FDCF042F052B51F0FC010491F9010083F9
:108900002F5F3F4F019641505040F3CFCB01089568
:108910000091CF0108950E949F402297D9013A010A
:10892000A62E2801912F80E006C02091CF0127FDBF
:10893000FCCF45E24FD0062D0729F9F19924E8DF55
:1089400007FDFDCF00E8802EAA2061F0FC01059113
:1089500014910883198308810F3F1F4F31F0992428
:10896000939403C00FEF08830983062D072979F03C
:108970004816590629F425D00883062D072939F011
:10898000FC0131964E165F0611F41BD00983488115
:1089900059818C0120E030E00E941C4002968A94AC
:1089A00099F69C013A959920890109F0BECF209152
:1089B000CF0127FDFCCF44E2BDCF2296EBE00C9423
:1089C00082400FEF600E701E01E0400E00E0501E6E
:1089D0000D91089520E030E00C942E4010CC2AE157
:1089E00007D00093FA042BE103D00093FB04089511
:1089F00069DC0F3F09F40FE108950E94A74000E0F1
:108A00000093600010E4FDDB23E004E45FDC7BD234
:108A10000064008301E000936000AFB7F89400E0C9
:108A200010E028E0029FF001E051FF4D158303950F
:108A30000230C0F3D4DF0091C0040093C00463D2BD
:108A40000068008300810061008380EF90E204965B
:108A5000E6EC80839183E0EC33D10FEF0583E8EC03
:108A60000081016000830A2FB9DFE3E00C948A40A3
:108A70000FB7F89410E41093CA0410E21093CA04DC
:108A8000E1ECF4E0108111601083E9EC10811260D8
:108A90001083E8EC108110641083E9EC1081116000
:108AA0001083E8EC10811068108398CF02DE068FE7
:108AB000178F20A331A3089564D00091CB0407FF42
:108AC00002C000E82EC005D2002361F5EBEC1CD2F9
:108AD00004FF1EC000E114D200E00093722901E0FF
:108AE00010E0009370291093712900E00093C304F3
:108AF00020E430E059D020E430E010E000E854D029
:108B000003E719E20093F8201093F92028D10AC056
:108B1000008106FF02C000E404C0008105FF02C01E
:108B200000E2EED11ED018952CD0A1D101FD02C0DB
:108B30008ED1B1F402E00093CC040091C50432D090
:108B4000F801008105FF06C02DD020E2F801269330
:108B50000DD106C000E827D020E2F8012693B3D05B
:108B6000E1CF8FBF0991199129913991499159917B
:108B7000699179910990199029903990E991F99129
:108B8000B1CE8A93FA93EA933A922A921A920A926F
:108B90007A936A935A934A933A932A931A930A932D
:108BA0008FB7089500E01AC08A932051304041F0F9
:108BB0002051304039F02052304031F080E005C083
:108BC00081E003C082E001C083E0EDDF20E0F80136
:108BD000218326E020838064818384CE64EF70E269
:108BE000202F2F70220F402F440F00E010E0001FB5
:108BF000020F43E00E94C740060F171F08959D0112
:108C0000E8EC82D10F7D008300810F7D00834DD180
:108C100002E00593AEEFB0E200E010E00D930C939C
:108C2000539600E2069300E4069349D1069300E4CC
:108C300006931D931D931D931C9315971D931C93D1
:108C400012AFD901089570DD8CD0002331F00330CC
:108C500011F0043009F436D182D0FD01068117816C
:108C6000083050E0104009F548E023E739E206E01B
:108C700011E2E2DAE8ECF4E023D022D058DD002360
:108C800011F4F8D012C0FD01068907FF05C011D00C
:108C900002E006AF18D009C009D0012B11F4F6D0BC
:108CA00004C007D001E006AF06D1CBCC048D158DF2
:108CB000089500E002AF03AFDC960D930C93089586
:108CC00000810062FDCA4CD0033011F447D043C08C
:108CD000A7D080A191A1801B910B282F292BE9F40B
:108CE00096D0E4DF0217130721F00091B329002387
:108CF00011F0DED030C004A115A120E00030120731
:108D000099F0F8010995002379F000E0FD0104AF26
:108D1000FC960183FD0180A191A1803400E09007C1
:108D200018F080E490E001C001E00093B329FD0158
:108D300086879787068D178D24AD35AD020F131FDB
:108D4000008B118BDC960D91132F080F191F1C93AC
:108D50000E93ABD0B1D0E4E00C948940B3D04FCFA8
:108D60002DDDA0EFB0E200912E210895F9DF04304F
:108D700011F4F4DF48C0FD018681978164AD75ADC3
:108D800020A131A18B01080F191F2017310718F4FA
:108D9000C901861B970BAC0123E739E2068D178DBD
:108DA000060F171F49DA3CD0080F191F04AF15AF83
:108DB0008034904031F42FD0448D558D24173507E1
:108DC00050F000A311A394962FD019F00995002319
:108DD00089F05CD018C020A131A12017310791F48F
:108DE000949612D0959700E0E030F00719F00995BD
:108DF000002311F43FD007C013D009D000E0DC9667
:108E00000D930C9358D0A7CFED91FC91089503D00A
:108E100022AF33AF089522AD33AD200F311F089537
:108E2000FD0104AD15AD0895EFDF00E0E030F0077F
:108E300008951DD001FD0AC00AD041F400912E21F1
:108E4000013009F423C0043009F417D008955FD02D
:108E500013CB0DD001FD0AC0FADF41F400912E21A1
:108E6000023009F425C0033009F407D008950091B9
:108E7000CC04089505E000932E21EDEFF0E204E02C
:108E80000593E5EFF0E204E0059308951B2F2A2FE8
:108E900010DC03E0DF01DE960C9300E00687078715
:108EA00004D00AD0A22FB12F0895ECEFF0E208957C
:108EB00004E000932E2103D002E006930895E4EF2E
:108EC000F0E2089531DCA2E1B1E2AEDF09F00995EC
:108ED000B8CBEBEC19D002FF08C0F093CA040091A4
:108EE000FC2006FF0BC0A5DF09C0008101FF07C001
:108EF00002E006D00091F42006FDABDFE6CAD7CB36
:108F00000093CA040895E0ECF4E000810895AFDF17
:108F100000FFCDCB01E00093CC04D1DF00E8069345
:108F2000C4DF00E8069301E0EBDFC9DF00E1069350
:108F30008ADECBCACC08E820000076007220408F81
:108F4000040000008000000D4111410004000013E6
:108F50004117410300000018410000040000001EFA
:108F6000410000000000000000000075207D2095F9
:108F700020952085208D2095209520952095209561
:108F80002095209520952095209520952000090278
:108F90001200010100C0320904000000FF000000BF
:108FA0001201000200000040EB03E42F0400000067
:068FB000000104030904A6
:040000030000800079
:00000001FF
