:100000000C940D010C9439010C9439010C943901B4
:100010000C9439010C9439010C9439010C94390178
:100020000C9439010C9439010C9439010C94390168
:100030000C9439010C9439010C9439010C94390158
:100040000C9439010C9439010C9439010C94390148
:100050000C9439010C9439010C9439010C94390138
:100060000C9439010C94AD020C942E020C94700285
:100070000C9402020C9439010C9439010C9439014E
:100080000C9439010C9439010C9439010C94390108
:100090000C9439010C9439010C9439010C943901F8
:1000A0000C9439010C9439010C9439010C943901E8
:1000B0000C9439010C9439010C9439010C943901D8
:1000C0000C9439010C9439010C9439010C943901C8
:1000D0000C9439010C9439010C9439010C943901B8
:1000E0000C9439010C9439010C94DE010C94390103
:1000F0000C9439010C9439010C9439010C94390198
:100100000C9439010C9439010C9439010C94390187
:100110000C9439010C9439010C9439010C94390177
:100120000C9439010C9439010C9439010C94390167
:100130000C9439010C9439010C9439010C94390157
:100140000C9439010C9439010C9439010C94390147
:100150000C9439010C9439010C9439010C94390137
:100160000C9439010C9439010C9439010C94A801B8
:100170000C9439010C94390101093D7F32CDC649F7
:1001800028955D513D17A853580383000046DBC8EE
:1001900065B4D0466B9B702F3F5B264E6501080906
:1001A000010024F40001000010000071EFB90330D9
:1001B000304FD388961946ABA37EFC010809010095
:1001C00024F400010000100000EE047E35DEC84873
:1001D000ABB194E3762C8F6B66010205010048E811
:1001E000010003356E9BF78718496594A40BE370F3
:1001F000C8797C0901050180841E0000001D473874
:10020000A0FC344F71AA7357881B278CB10A0105D3
:100210000101B40200128000901E11241FBECFEF16
:10022000DFE2DEBFCDBF18BE19BE1ABE1BBE10E294
:10023000A0E0B0E2E6EEFFE302C005900D92AA381E
:10024000B107D9F712E2AAE8B0E201C01D92AA3ABA
:10025000B107E1F712E0CAE1D2E004C02297FE0143
:100260000E94ED1FC831D107C9F70E94990C0C9468
:10027000F11F0C940000DC018C918230C9F08330B6
:1002800020F4813009F03FC005C0833099F08430FC
:10029000D1F525C0603811F483E034C0613140F0FD
:1002A00053961C92539711966C93119782E02AC033
:1002B0001C9229C0262F2F7012962C931297862FEE
:1002C00090E034E0959587953A95E1F711968C93F7
:1002D000119753961C925397222399F010C053966E
:1002E0008C915397FD01E80FF11D63838F5F539647
:1002F0008C93539712969C911297981711F084E063
:1003000001C081E08C938C91882311F48EEF0895C5
:100310008150823010F08FEF089511968C910895DE
:10032000DC018C91E82FF0E0EB58FF4D90818F5F5E
:100330008C9396131C928C91843041F4F89488ED40
:1003400084BF81E0E8E7F0E08183FFCF862F089546
:100350001F920F920FB60F9208B60F92112418BE7B
:100360008F939F93EF93FF939091B0098091CC204E
:10037000E82FF0E0E557FF4D91838F5F8F738093F7
:10038000CC208091CC209091CD208F5F8F738917E6
:1003900051F488E0E0E6F6E085838091B3098F7C34
:1003A000E0EBF9E08383FF91EF919F918F910F90A4
:1003B00008BE0F900FBE0F901F9018951F920F92BE
:1003C0000FB60F9208B60F92112418BE8F939F9309
:1003D000EF93FF939091A00A80915121E0E1F1E227
:1003E000E80FF11D91838F5F8F7380935121FF91EF
:1003F000EF919F918F910F9008BE0F900FBE0F90BD
:100400001F9018951F920F920FB60F9208B60F9279
:10041000112418BE8F939F93EF93FF939091B00890
:100420008091D721E6E9F1E2E80FF11D91838F5F1A
:100430008F738093D721FF91EF919F918F910F90B0
:1004400008BE0F900FBE0F901F9018950895F89456
:10045000E0E0F6E084E085838183FFCF1F920F9276
:100460000FB60F9208B60F92112418BE8F939F9368
:10047000EF93FF939091472280914822981739F487
:10048000F894E0E0F6E084E085838183FFCFF89480
:10049000E0914822F0E0EF5DFD4D86898093A00851
:1004A00080E4E0EAF8E081837894809148228F5FCD
:1004B0008F7080934822909147228091482298170C
:1004C00021F48CE0E0EAF8E08383FF91EF919F91C3
:1004D0008F910F9008BE0F900FBE0F901F90189530
:1004E0001F920F920FB60F9208B60F92112418BEEA
:1004F0008F939F93EF93FF9390914722809148228F
:10050000981739F0F894E0E0F6E084E08583818381
:10051000FFCF80914922882379F088E0E0E4F6E07B
:10052000828382E0E0E6F6E08683E0EAF8E080E1BC
:10053000848380E2838306C083E080934A22E0EADA
:10054000F8E01382FF91EF919F918F910F9008BE79
:100550000F900FBE0F901F9018951F920F920FB61D
:100560000F9208B60F9209B60F92112418BE19BE49
:100570008F939F93AF93BF93EF93FF93A0EAB8E05D
:100580009091A00880913522E82FF0E0EF5DFD4DBD
:1005900094838F5F8F7080933522809149228150A0
:1005A0008093492280914922882381F413961C92DA
:1005B000139798E014969C9382E0E0E6F6E085833A
:1005C000E0E4F6E0918384E080934A22FF91EF918A
:1005D000BF91AF919F918F910F9009BE0F9008BE70
:1005E0000F900FBE0F901F901895CF93DF93EB01E4
:1005F000DC01AB5ABF4F8C918230C1F5E0EBF8E0E3
:100600001382148283E0858380E8E0E4F6E082834D
:1006100084E0E0E6F6E0868381E08C93E881F9816E
:100620000190F081E02DCB0160E80995E881F98126
:100630000190F081E02DCE0163E90995E881F9810F
:100640000190F081E02DCE0160E00995E881F9810B
:100650000190F081E02DCE0162E00995E881F981F9
:100660000190F081E02DCE0161E00995DF91CF91FD
:1006700008950F931F93CF93DF938C01EB01E881D3
:10068000F9810190F081E02DCB0160E80995E881C6
:10069000F9810190F081E02D0B5A1F4FD8018C9108
:1006A00005551040882311F462E901C066E9CE01C6
:1006B0000995E881F9810190F081E02DCE0160E09B
:1006C0000995E881F9810190F081E02DCE0160E08B
:1006D00009950B5A1F4FF8018081882301F1E881A9
:1006E000F9810190F081E02DCE0163E00995E88168
:1006F000F9810190F081E02DCE0161E60995E88154
:10070000F9810190F081E02DCE0160E70995E88143
:10071000F9810190F081E02DCE0160E70995DF912C
:10072000CF911F910F910895CF93DF93EB01611546
:100730007105A1F1E881F9810190F081E02DCB01F3
:1007400060E80995E881F9810190F081E02DCE0102
:1007500063EA0995E881F9810190F081E02DCE01ED
:1007600061E00995E881F9810190F081E02DCE01E9
:1007700061E00995E881F9810190F081E02D809197
:10078000240682FF02C061E007C08091240680FD3C
:1007900002C060E001C062E0CE010995DF91CF9117
:1007A0000895CF93DF93FC01C0E2D6E034E03E83AE
:1007B00021E02E83862F81508230D8F4DF01AA5A9F
:1007C000BF4F8C918823A9F0E65BFF4F2193809166
:1007D00020099091210980839183EB54F04082E0BD
:1007E0008C93613011F43D830EC0623061F42D832F
:1007F0000AC0E65BFF4F1192108211823B9681E0A6
:100800008083E655F040E95AFF4F81E08083DF9115
:10081000CF9108950F931F93CF93DF938C01EB013A
:10082000E881F9810190F081E02DCB0160E8099524
:10083000E881F9810190F081E02D0A5A1F4FD8011B
:100840008C9106551040882311F466EA01C06EEAC7
:10085000CE010995E881F9810190F081E02DCE016A
:1008600060E00995E881F9810190F081E02DCE01E9
:1008700061E00995E881F9810190F081E02DCE01D8
:1008800060E00995E881F9810190F081E02DCE01C9
:1008900060E00995E881F9810190F081E02DCE01B9
:1008A00060E00995E881F9810190F081E02DCE01A9
:1008B00060E009950A5A1F4FF8018081882309F4E6
:1008C00040C0E881F9810190F081E02DCE0164EE15
:1008D0000995E881F9810190F081E02DCE016CE06D
:1008E0000995E881F9810190F081E02DCE0162E364
:1008F0000995E881F9810190F081E02DCE0160E059
:100900000995E881F9810190F081E02DCE0168E838
:100910000995E881F9810190F081E02DCE0163E134
:100920000995E881F9810190F081E02DCE0164E61E
:100930000995E881F9810190F081E02DCE0160E018
:100940000995DF91CF911F910F9108950F931F93F8
:10095000CF93DF938C01623051F0633058F46130F3
:1009600019F0C0E0D0E008C0EC01E29605C0EC014F
:10097000AA9602C0EC01EC96015C1F4FF801A08121
:10098000B1810F531040CA17DB0711F480E01EC07D
:10099000109741F0ED91FC9111970280F381E02DC9
:1009A000CD010995209711F480E00BC0E881F98111
:1009B0000190F081E02DCE010995882311F0C0E06F
:1009C000D0E0015C1F4FF801C083D183DF91CF914C
:1009D0001F910F910895E0EBF8E014821582A0E4D6
:1009E000B6E080E812968C931297E0E6F6E084E099
:1009F000868380E212968C9382E086838091A12286
:100A0000882371F481E08093A12260919F227091EC
:100A1000A0226115710521F08CE492E20E94390355
:100A20000895CF93DF93EB018091A1228823C1F039
:100A300060919F227091A0226115710521F08CE4D4
:100A400092E20E94F5021092A12260919F22709181
:100A5000A0226115710521F08CE492E20E94390315
:100A6000A0E6B6E084E015968C931597E0E4F6E0F6
:100A700080E88683818382E015968C9380E286836A
:100A80008183209709F02197E0EBF8E0C683D783B4
:100A900080EC858388E1848380E0DF91CF910895A5
:100AA0006093B00884E0E0E0F6E085838091B108CF
:100AB00087FFFCCF84E0E0E0F6E086838091B00819
:100AC0000895CF93DF93DC019C012D573F4FEC013C
:100AD000CC57DF4F18C0F894F9019081888198179E
:100AE00089F08091A10A85FF0DC08881FD01E80F82
:100AF000F11DED5BFF4F80818093A00A88818F5F9D
:100B00008F7388837894F901808198818F5F8F73C8
:100B1000891709F38081A80FB11DAD5BBF4F6C939E
:100B20008F5F8F738083DF91CF91089580E191E291
:100B30000E9461050895089580E00895089580E079
:100B40000895FC01ED57FF4F9081E358F040DF011D
:100B5000AC57BF4F8C919817A1F08091B10985FFD8
:100B600010C08091640684FD0CC08C91E80FF11DCB
:100B7000ED5BFF4F80818093B0098C918F5F8F7305
:100B80008C9308951F93162F04C08BE890E20E9467
:100B9000A10580910E2190910F218F5F8F7389178E
:100BA000A1F380910E21E82FF0E0E253FF4D108376
:100BB0008F5F8F7380930E211F910895BF92CF9204
:100BC000DF92EF92FF920F931F93CF93DF938C01ED
:100BD0007B01EA01B22EFB018181893011F080E0B6
:100BE00094C1FB019389923008F41BC1838188234F
:100BF00009F017C1D480F1E0DF1681F0DF1648F06C
:100C000082E0D81609F4B2C0E3E0DE1609F009C1AB
:100C1000F1C0C801BA010E94390303C1222309F0BF
:100C20007EC1953009F07EC1FB0185818537B9F51C
:100C300086818337A1F58781823689F5E881F9813C
:100C40000190F081E02DCA0160E80995E881F98101
:100C50000190F081E02DCE0163E90995E881F981E9
:100C60000190F081E02DCE0160E00995E881F981E5
:100C70000190F081E02DCE0161E00995E881F981D4
:100C80000190F081E02DCE0162E00995F801D0825B
:100C9000E0EBF9E08FE7868382E08783C4C0F70149
:100CA0008581813609F03EC18681803709F03AC1DD
:100CB0008781803709F036C145E5C42ED12CC00E9E
:100CC000D11EF6018081882309F42CC1E881F981C5
:100CD0000190F081E02DCE0160E80995E881F9816D
:100CE0000190F081E02DCE0163E90995E881F98159
:100CF0000190F081E02DCE0160E00995E881F98155
:100D00000190F081E02DCE0161E00995E881F98143
:100D10000190F081E02DCE0161E00995F60180811E
:100D2000823009F47EC00D5A1F4FF801C083D18371
:100D30000355104084E0E0E6F6E08583E0E4F6E069
:100D400080E885838183F801E45AFF4F8081918197
:100D5000E0EBF8E08683978380E2838383E08583FA
:100D600088E1848382E0F60180835BC0222309F05E
:100D700001C1933009F001C1FB018581823081F509
:100D8000E881F9810190F081E02DCA0160E80995C0
:100D9000E881F9810190F081E02DCE0163E90995A8
:100DA000E881F9810190F081E02DCE0160E00995A4
:100DB000E881F9810190F081E02DCE0162E0099592
:100DC000E881F9810190F081E02DCE0162E0099582
:100DD000F8011082E0EBF9E08FE38683178223C0ED
:100DE000F7018581813009F0C8C0C801BE010E94A9
:100DF000F50217C09530A9F4FB018581813089F493
:100E0000978180E0268130E0282B392B045A1F4F30
:100E1000F801208331830C551040E0EBF8E0268385
:100E20003783BB2061F5F8018081882341F1F70108
:100E30008381823021F5DD24D3941DC0F701ED0DAF
:100E4000F11DC38004C08BE890E20E94A10580914F
:100E50000E2190910F218F5F8F738917A1F38091DD
:100E60000E21E82FF0E0E253FF4DC0828F5F8F73B9
:100E700080930E21D394F7018389D816F8F20D5A86
:100E80001F4FF80180819181892B09F43DC0F70142
:100E900083818130C9F521E033C0F701E20FF11DF4
:100EA00033811AC0F8949091192280911A229817D0
:100EB00091F08091B10885FF0EC0E0911A22F0E018
:100EC000E752FE4D80818093B00880911A228F5F97
:100ED0008F7380931A2278948091192290911A220C
:100EE0008F5F8F738917F1F280911922E82FF0E05C
:100EF000E752FE4D30838F5F8F73809319222F5FEF
:100F0000F7018389281748F281E0DF91CF911F9183
:100F10000F91FF90EF90DF90CF90BF9008959530A4
:100F200009F4BDCEE881F9810190F081E02DCE0178
:100F300060E80995E881F9810190F081E02DCE010A
:100F400063E90995E881F9810190F081E02DCE01F6
:100F500060E00995E881F9810190F081E02DCE01F2
:100F600061E00995E881F9810190F081E02DCE01E1
:100F700060E022C0933009F433CFE881F981019019
:100F8000F081E02DCE0160E80995E881F9810190BA
:100F9000F081E02DCE0162E90995E881F9810190A7
:100FA000F081E02DCE0160E00995E881F9810190A2
:100FB000F081E02DCE0162E0099533CFEF92FF92F0
:100FC0001F93DF93CF93CDB7DEB7A097CDBFDEBF22
:100FD0007C01742F322F662321F480E3898311E092
:100FE00020C010E0AE014F5F5F4F862F90E0DA0126
:100FF000A10FB11DFC01EF70F070E758FF4D20818B
:101000002C931F5F64E0959587956A95E1F7682FAB
:10101000882359F706C0FC01E10FF11D30831F5FE3
:1010200002C0CE0101961717B0F30DC0D701ED91A4
:10103000FC91DE01A10FB11D0190F081E02DC701EF
:101040006C9109951150112389F7A096CDBFDEBF91
:10105000CF91DF911F91FF90EF9008951F93CF9351
:10106000DF93EC0110E02EC06532E1F4112311F49E
:1010700011E023C0A881B981ED91FC9111970190F5
:10108000F081E02DCD0165E20995A881B981ED914E
:10109000FC9111970190F081E02DCD0165E2099559
:1010A00010E00BC0112399F4E881F981A081B1818E
:1010B0002D913C91CF01F90109958A819B8101967F
:1010C0008A839B83EA81FB816081662369F6DF91D5
:1010D000CF911F9108959F92AF92BF92CF92DF92CE
:1010E000EF92FF920F931F93DF93CF93CDB7DEB7AD
:1010F000A897CDBFDEBF8C016B017A01DB01119691
:101100008C918F3339F1803490F4803209F430C2FD
:10111000813230F4882309F18A3009F03CC20FC1D2
:10112000813309F428C2823309F035C22CC28337D7
:1011300009F4A5C1843738F48D3409F412C28D3610
:1011400009F029C2F8C18E3F09F419C28F3F09F096
:1011500022C23FC200E010E28DC1FB0193899923B6
:1011600009F435C28381813009F440C0813020F018
:10117000823009F02CC2A2C0A8E7AA2EA1E0BA2EA4
:10118000FFE99F2EFEE0F91510F0C92C02C0EFE038
:10119000CE2ED701ED91FC910190F081E02DC70199
:1011A00060E80995D701ED91FC910190F081E02D67
:1011B000C7016C2D09958501DC2C0EC0F8010F5F6D
:1011C0001F4F4491F701A081B1812D913C91C7013E
:1011D000642FF9010995DA94DD2081F7AC0CB11C7C
:1011E000FEE0FC1508F0F3C19C18CCCF933021F53C
:1011F000DB0114968C9114978823F1F415968C9149
:10120000813041F0813018F08230B1F406C0C8015D
:1012100061E005C0C80162E002C0C80163E00E944D
:10122000A604B82E882351F4015B1F4FF801E08219
:10123000F1820F54104002C0BB24B394D6015396E0
:101240008C9153978230F9F414968C918230D9F4B2
:10125000D801AD5BBF4F8C91882379F48091200930
:1012600090912109F801EC5BFF4F20813181821BB5
:10127000930B8083918381E08C930F5A1F4FF80169
:10128000E082F182BB24D701ED91FC910190F081C5
:10129000E02DC70160E80995D701ED91FC9101901F
:1012A000F081E02DC70161E00995D701ED91FC9136
:1012B0000190F081E02DC7016B2D3FC0933079F490
:1012C000FB018481882359F4C80160E00E94A604D0
:1012D000015B1F4FD8011D921C920F541040F60164
:1012E0008389823081F48481823069F40D5B1F4FE1
:1012F000D8011D928D011D921C921197035F1F4F03
:10130000F80110821182D701ED91FC910190F081DA
:10131000E02DC70160E80995D701ED91FC9101909E
:10132000F081E02DC70161E00995D701ED91FC91B5
:101330000190F081E02DC70160E0099548C1FB01F3
:101340008389823009F073C08381882309F06FC0DC
:101350008481882309F06BC0DA01ED91FC91019042
:10136000F081E02DCA0160E80995D701ED91FC916B
:101370000190F081E02DC70169EA0995D701ED914F
:10138000FC910190F081E02DC70160E00995D70143
:10139000ED91FC910190F081E02DC70160E009958D
:1013A000D701ED91FC910190F081E02DC70160E043
:1013B0000995D701ED91FC910190F081E02DC701D5
:1013C00065E00995D701ED91FC910190F081E02D48
:1013D000C70166E50995D701ED91FC910190F08177
:1013E000E02DC70163E40995D701ED91FC910190CF
:1013F000F081E02DC70163E40995D701ED91FC91DF
:101400000190F081E02DC70169E40995D701ED91C4
:10141000FC910190F081E02DC7016FE40995C801AE
:10142000B7010E940A04C801B7010E949403F601A3
:101430008389833009F0CBC08381813009F0C7C034
:101440008481823009F0C3C00F5A1F4FD801ED923A
:10145000FC9201551040C80165810E94D103B7C0BC
:10146000D701ED91FC910190F081E02DC701099524
:101470000F5F1F4FF8016081662391F780C04D8395
:101480005E838EE090E28F839887CE0105960E945E
:101490002E088D819E812F81388589839A832B83A5
:1014A0003C8320914A22EB81FC818081E980FA8093
:1014B000883739F4C701622F40E020E30E94DE073D
:1014C00030C0222321F480E3898711E023C010E09B
:1014D000AE01475F5F4FFA01E10FF11D822F6AE015
:1014E0000E94DF1F905D90831F5F822F0E94DF1F8D
:1014F000282F882381F70EC0D701ED91FC91D501EB
:10150000A10FB11D0190F081E02DC7016C910995EB
:10151000115005C078E0A72EB12CAC0EBD1E1123D2
:1015200059F78B819C8101968B839C83CE01019618
:101530000E942E082CC0D801AD5BBF4F8C91882330
:10154000F1F48091200990912109F801EC5BFF4FA3
:1015500020813181821B930B8083918381E08C9366
:101560000EC00D5B1F4FF80111921082118207C04F
:10157000C80160E00AC0C80161E00E94D10381E0B7
:10158000D6018C9327C0C80162E00E94D10381E09C
:10159000F60180831FC0015B1F4FF801808191819C
:1015A0000F541040E816F906A1F4015C1F4FF80132
:1015B000A081B181109769F0ED91FC9111970480A1
:1015C000F581E02DCD01B601A701099503C081E0A9
:1015D00001C080E0A896CDBFDEBFCF91DF911F9103
:1015E0000F91FF90EF90DF90CF90BF90AF909F90C2
:1015F00008950F931F93CF93DF93EC01162F042FC1
:1016000089A5833019F089A5863009F58EA19FA19F
:101610008F5F8F708917D9F088A58823C1F4A0EA5D
:10162000B8E013961C9213978EA1FE01E80FF11DEE
:10163000168B8F5F8F708EA308A786E089A782E044
:1016400013968C93DF91CF911F910F910895CE0146
:101650000E943D0BD5CFFF920F931F938C01F42E68
:10166000606C40E00E94F90AC8016F2D40E00E94C2
:10167000F90A1F910F91FF900895CF93DF93EC012A
:1016800089A5843009F446C0853040F4823041F1A8
:101690008330D8F5813009F075C007C0863009F471
:1016A0004DC0873008F04FC03DC080912009909117
:1016B00021092A813B81821B930B029708F462C0A7
:1016C000E0EAF8E08BE68583138288E0848382E099
:1016D00089A780912009909121098A839B8352C018
:1016E00080912009909121092A813B81821B930BD3
:1016F000823E910508F446C083E089A718A6CE0172
:1017000062E042E00E942B0B3DC084E0E0E0F6E0A6
:10171000868338C080912009909121098A839B8318
:1017200085E089A780912009909121092A813B8138
:10173000821B930B0E9710F083E089A784E0E0E012
:10174000F6E085831FC080912009909121092A81AC
:101750003B81821B930B0E97A8F0E0E4F6E092E049
:101760009283A0E6B6E081E016968C93169788E007
:10177000828316969C93118AE0EAF8E01382148221
:10178000158219A6DF91CF910895E0E0F2E08091F3
:10179000230280FF17C081E083A32091100230E074
:1017A0002093A4223093A52240911102942F80E02F
:1017B000822B932B8093A4229093A52280912002C8
:1017C000806880A3E0E0F2E080912B0280FF22C0DD
:1017D00041E043A73091120220911302922F80E042
:1017E000232F30E0282B392B2093A6223093A722D9
:1017F00080912802806880A785E0243338071CF494
:10180000E0E4F6E04583295C354024F081E0E0E443
:10181000F6E086838091A222823009F04BC080914D
:101820009622882359F02091200930912109809136
:10183000972290919822281B390B04C0209197225F
:10184000309198228091992290919A228217930741
:1018500088F59C012F5F3F4F80919622882359F095
:101860008091200990912109821B930B80939722EC
:101870009093982204C020939722309398228091CD
:10188000240680FF50C08091A4229091A5228E55FD
:1018900096400CF048C009C08091A4229091A522E6
:1018A000865594408F3D910528F08CE492E260E0EB
:1018B0000E94D10381E292E20E943D0B8BE890E20C
:1018C0000E94A1059091932180919421981791F005
:1018D0008091A10A85FF0EC0E0919421F0E0ED5ABD
:1018E000FE4D80818093A00A809194218F5F8F7339
:1018F000809394219091192280911A229817C1F017
:101900008091B10885FF14C0E0911A22F0E0E752FF
:10191000FE4D80818093B00880911A228F5F8F7373
:1019200080931A2208958091240682FFC3CFB4CFFA
:1019300008959F92AF92BF92CF92DF92EF92FF9263
:101940000F931F93CF93DF9388E0E0E6F6E0818367
:1019500087E0809350008091510081FFFCCF88ED9B
:1019600084BF81E08093400086E0809350008091A6
:10197000510082FFFCCF91E090936000E0E0FAE03C
:1019800090A711A681E281839093000A82E0E0E8AB
:10199000F6E0818387E0E0EAF0E082837894A0E6D5
:1019A000B6E090E216969C93169711969C93119729
:1019B00040E815964C93159711964C93119780918A
:1019C0007606877C886156968C935697809174062C
:1019D000877C806154968C93549758E016965C935C
:1019E000169711965C931197E0EBF9E08FE38683ED
:1019F0001782938383E4858328E12483E0E8F6E07B
:101A000080919206877C8861828B55835183E0EABE
:101A1000FAE086E6868380EF8783938383E085837D
:101A2000248386E08093000920E436E0F9014283B4
:101A300044E016964C93169711964C93119782E0BA
:101A4000828391E016969C93169711969C9311971A
:101A5000528316968C93169711968C93E0E0F6E0DD
:101A600046834183E0E2F6E0468341839683918397
:101A7000F9019583918310924C2290934E2290937A
:101A80006222E0E0F2E090A380E381A390A788E2E5
:101A900081A74483128280E1818390930002809128
:101AA0002002806880A380912802806880A710921D
:101AB0008B2210928C2210928F22109290221092E0
:101AC0009122FF24F39420E2A22E26E0B22E94E08D
:101AD000992EC0E6D6E088E0E82E00EBC02E09E0A3
:101AE000D02E80918F22882359F0209120093091A7
:101AF00021098091902290919122281B390B04C0DA
:101B00002091902230919122809192229091932263
:101B10008217930708F062C0F0928F22809120090B
:101B2000909121098093902290939122A0919D22DF
:101B3000B0919E22109709F451C0ED91FC9111973C
:101B40000190F081E02DCD0160E80995A0919D22E2
:101B5000B0919E22ED91FC9111970190F081E02DC2
:101B6000CD0164EA0995A0919D22B0919E22ED914C
:101B7000FC9111970190F081E02DCD0161E0099574
:101B8000A0919D22B0919E22ED91FC911197019020
:101B9000F081E02DCD0163E00995A0919D22B091E7
:101BA0009E22ED91FC9111970190F081E02DCD01E5
:101BB0006091A4220995A0919D22B0919E22ED9161
:101BC000FC9111976091A4227091A522672F770F45
:101BD000770B0190F081E02DCD0109958091A32232
:101BE000882351F01092A32260919D2270919E2231
:101BF0008CE492E20E9494038091A2228823C1F493
:101C00008091A4229091A5228F3691058CF4809129
:101C1000440680FD0DC0F092A22260919D22709139
:101C20009E226115710521F08CE492E20E940A0463
:101C30008091A222813041F48091A4229091A5222A
:101C40008A3B91053CF402C08823A1F080914406B0
:101C500080FF10C0F501F68296821092A222609158
:101C60009D2270919E226115710521F08CE492E213
:101C70000E940A0480914C22882309F446C0909166
:101C8000CC208091CD20981709F43FC01091CC2032
:101C90008091CD20181B1F731F3008F01EE080E1DB
:101CA00091E260E80E946105612F6F5F606980E1E9
:101CB00091E20E94610580E191E262E00E9461058B
:101CC00000E021C09091CC208091CD209817D1F3D5
:101CD000E091CD20F0E0E557FF4D61818091CD206E
:101CE0008F5F8F738093CD208091B10987FFEE8243
:101CF0008091B3098F7C8062F601838380E191E259
:101D00000E9461050F5F0117E8F29091D721809141
:101D1000D821981709F46CC0A0919F22B091A022FD
:101D2000109709F465C01091D7218091D821181B14
:101D30001F731F3008F01EE0ED91FC911197019088
:101D4000F081E02DCD0160E80995A0919F22B0912E
:101D5000A022ED91FC911197612F6F5F6069019056
:101D6000F081E02DCD010995A0919F22B091A02294
:101D7000ED91FC9111970190F081E02DCD0161E092
:101D8000099500E033C0A0919F22B091A022ED916F
:101D9000FC9111972081318113C0F8948091B10892
:101DA00087FF0DC09091B0088091D721E82FF0E017
:101DB000EA56FE4D91838F5F8F738093D72178947D
:101DC0009091D7218091D821981739F3E091D821AB
:101DD000F0E0EA56FE4D61818091D8218F5F8F73CC
:101DE0008093D821CD01F90109950F5F011758F2B1
:101DF00090915121809152219817A1F447C0F894F5
:101E00008091A10A87FF0DC09091A00A8091512175
:101E1000E82FF0E0E05FFE4D91838F5F8F7380933A
:101E2000512178949091512180915221981739F342
:101E3000E0915221F0E0E05FFE4D618180915221FE
:101E40008F5F8F73809352218EE492E20E943B0158
:101E5000682F8F3FD9F08DE492E20E9490018CE4CC
:101E600092E26EE472E24EE152E20E946B08882335
:101E700069F48CE492E26EE472E24EE152E220E018
:101E80000E94DE05882311F4F0924E2280914C22AC
:101E9000882309F03FC09091CC208091CD209817E5
:101EA000C9F19091CC208091CD209817D1F3E09189
:101EB000CD20F0E0E557FF4D61818091CD208F5F0F
:101EC0008F738093CD208091B10987FFEE8280913E
:101ED000B3098F7C8062F601838382E692E20E94DE
:101EE0003B018F3FB9F08CE492E262E672E24CE192
:101EF00052E20E946B08882369F48CE492E262E665
:101F000072E24CE152E221E00E94DE05882311F4E6
:101F1000F0926222A0918B22B0918C22109741F016
:101F2000ED91FC9111970680F781E02DCD01099587
:101F30008BE492E20E94C50BD4CDA0E6B6E081E02E
:101F400015968C931597E0E4F6E082E08583818313
:101F500015968C9380E28683818380E00895A0E4C7
:101F6000B6E080E212968C931297E0E6F6E082E00B
:101F7000868312968C9381E086830895FC0182818A
:101F800093810E94EB0408952F923F924F925F92AB
:101F90006F927F928F929F92AF92BF92CF92DF9279
:101FA000EF92FF920F931F93DF93CF9300D000D057
:101FB000CDB7DEB74C018B015A01DB011196FC90C5
:101FC000B4E0FB1609F4A8C1BF1558F0E2E0FE1614
:101FD00009F421C1EF1508F43FC1F1E0FF1681F4C7
:101FE00011C026E0F21609F4D7C3F21608F45DC357
:101FF00037E0F31609F405C468E0F61609F44EC597
:1020000080E0DBC5DC0116961C921697FB017481FB
:1020100060E0838190E0682B792B12968D919C91E2
:1020200013970E941105182F8823B1F0D501ED9167
:10203000FC910190F081E02DC50160E80995D50182
:10204000ED91FC910190F081E02DC50161E10995D0
:10205000D501ED91FC91AAC5E0E6F6E0F582E0E459
:10206000F6E082E0868381838091200990912109A6
:102070000DE710E06E010894C11CD11CE09020090E
:10208000F0902109F701E81BF90B0E171F0750F01C
:102090000E1B1F0BC6010E94C50B0115110511F087
:1020A000C701ECCF82E0E0E4F6E0858366241E0100
:1020B0000894211C311C10E4412E16E0512EC12C35
:1020C000B6E0DB2EA4E07A2E8091200990912109C0
:1020D0000DE710E0E0902009F09021099701281BFE
:1020E000390B0217130750F0021B130BC1010E949A
:1020F000C50B0115110511F0C701ECCFE2E0D201CB
:102100001696EC93809120099091210904EC19E036
:10211000E0902009F09021099701281B390B021744
:10212000130750F0021B130BC1010E94C50B0115D0
:10213000110511F0C701ECCF3CEA3093B008D6018D
:1021400015967C928091B10887FFFCCFF6017682CC
:102150008091B008F3E5F093B008D60115967C9213
:102160008091B10887FFFCCFF60176828091B0089C
:102170001092B00875828091B10887FFFCCFD6011C
:1021800016967C9216979091B0081092B00815960A
:102190007C928091B10887FFFCCFF6017682809116
:1021A000B008933529F481E0D40116968C9308C0C9
:1021B00022E0F2012583639433E0631609F084CFB3
:1021C000D40116968C911697882331F412968D912E
:1021D0009C9113970E94EB04D501ED91FC91019025
:1021E000F081E02DC50160E80995D501ED91FC91E4
:1021F0000190F081E02DC50161E10995D501ED91D6
:10220000FC91D40116966C9181E068270190F081D1
:10221000E02DC501D0C4FC01828193810E94EB04B2
:10222000E0E4F6E0F28281E0E0E6F6E08683D401C5
:1022300016961C92D501ED91FC910190F081E02D54
:10224000C50160E80995D501ED91FC910190F081FF
:10225000E02DC50161E296C2DA01ED91FC91019099
:10226000F081E02DCA0160E80995D501ED91FC915E
:102270000190F081E02DC50164E30995F3E6EF2EAE
:10228000F0E2FF2E00E010E0C12CE6E0DE2E74E06C
:10229000572E64E0762E812C56E0952E44E0642E75
:1022A00033C080818093B008D60115966C928091DE
:1022B000B10887FFFCCFD60116967C928091B008BA
:1022C0003196EE15FF0569F7D501ED91FC9101906E
:1022D000F081E02D1092B008D40115967C92809187
:1022E000B10887FFFCCFD60116965C926091B008CA
:1022F000C50109950F5F1F4FE3E0F0E0EE0EFF1EF2
:102300000330110509F43FC2F801EE0FFF1FE00F83
:10231000F11FE05AFF4DC5CFFB018381823009F4E4
:10232000D4C0833009F461C1813009F045C4DB01B8
:1023300015968C9190E0A0E0B0E0CC24D82EE92E48
:10234000FA2EFB01868190E0A0E0B0E0DC01992745
:102350008827C82AD92AEA2AFB2A848190E0A0E0AB
:10236000B0E0C82AD92AEA2AFB2A878190E0A0E0B7
:10237000B0E0B82FAA2799278827C82AD92AEA2A9D
:10238000FB2A918580E02085222E3324282A392AB1
:102390009401275F3F4F2B833C83412C76E0572EDF
:1023A000810130E12316310410F00FE010E00A83C0
:1023B000D501ED91FC910190F081E02DC50160E81F
:1023C0000995D501ED91FC916A8160640190F081DD
:1023D000E02DC501099536014701102F68C060FC4A
:1023E00002C080E201C088E28093B00824E0F201DC
:1023F00025838091B10887FFFCCFE4E0D2011696D7
:10240000EC938091B008D401C30169E0B695A7951B
:10241000979587956A95D1F78093B008D201159664
:10242000EC938091B10887FFFCCFE4E0D2011696CF
:10243000EC938091B0088B819C810E94C50BD401E4
:10244000C301B695A795979587958093B008E4E06A
:10245000D2011596EC938091B10887FFFCCFE4E0A0
:10246000D2011696EC938091B008D501ED91FC91C4
:102470000190F081E02D1092B00824E0D201159671
:102480002C938091B10887FFFCCF24E0D2011696EF
:102490002C936091B008C50109958B819C810E94A5
:1024A000C50B11500894611C711C811C911C1123D7
:1024B00009F095CF3A81C30ED11CE11CF11C3F30CD
:1024C00008F47AC3231A31086BCFDB0115969C916F
:1024D000159780E014962C911497422E5524482A83
:1024E000592A19969C91199780E018962C91622E82
:1024F0007724682A792A49E0242E312C280C391CAB
:10250000C12C36E0D32E24E0922E8301B0E16B166D
:10251000710410F00FE010E0802ED501ED91FC91D8
:102520000190F081E02DC50160E80995D501ED919C
:10253000FC91602F60640190F081E02DC501099548
:102540007201102F44C0B0EAB093B008F601958232
:102550008091B10887FFFCCFD60116969C92169702
:102560008091B008F092B00815969C928091B108C5
:1025700087FFFCCFF60196828091B008E092B00808
:1025800095828091B10887FFFCCFD60116969C9268
:102590008091B008D501ED91FC910190F081E02D82
:1025A0001092B008D60115969C928091B10887FFD1
:1025B000FCCFD60116969C926091B008C501099592
:1025C000C1010E94C50B11500894E11CF11C11239C
:1025D00009F0B9CF882D90E0480E591EBEE0B8151D
:1025E00008F0EAC2681A790A90CFDA01ED91FC91FD
:1025F0000190F081E02DCA0160E80995D501ED91C7
:10260000FC910190F081E02DC50164E4099596E507
:10261000E92E90E2F92E00E010E0C12C86E0D82EE1
:10262000B4E05B2EA4E07A2E812CF6E09F2EE4E04D
:102630006E2E33C080818093B008D60115966C92BF
:102640008091B10887FFFCCFD60116967C928091CD
:10265000B0083196EE15FF0569F7D501ED91FC91B3
:102660000190F081E02D1092B008D40115967C9273
:102670008091B10887FFFCCFD60116965C926091DD
:10268000B008C50109950F5F1F4FE3E0F0E0EE0EC3
:10269000FF1E0430110509F48FC2F801EE0FFF1F71
:1026A000E00FF11FED5AFF4DC5CFDB0153968C9122
:1026B0005397882341F0813009F053C013968C91D1
:1026C000813009F04EC08CEA8093B00884E0E0E0ED
:1026D000F6E085838091B10887FFFCCFE0E0F6E06B
:1026E00094E096838091B00880E88093B008958349
:1026F0008091B10887FFFCCFE0E0F6E084E08683BC
:102700009091B0081092B00885838091B10887FF3E
:10271000FCCFE0E0F6E084E086839091B008109270
:10272000B00885838091B10887FFFCCF84E0E0E0AA
:10273000F6E086838091B00820912009309121092C
:1027400084ED90E34091200950912109FA01E21BA8
:10275000F30B8E179F0728F08E1B9F0B11F09A0129
:10276000F1CFD501ED91FC910190F081E02DC501F3
:1027700060E80995D501ED91FC910190F081E02D83
:10278000C50161E50995D501ED91FC910190F081BC
:10279000E02DC50160E00FC2FB018389853008F49C
:1027A0000BC29381892F8150823060F4958180E043
:1027B000248130E0822B932BD40117968D939C9328
:1027C00018970CC0933011F010E009C0FB01848110
:1027D000D40117968C93179718961C9211E0D50187
:1027E000ED91FC910190F081E02DC50160E8099523
:1027F000D501ED91FC910190F081E02DC50161E6DC
:10280000CFC1FB018389882309F4D6C1838181303C
:1028100009F058C051E0A0E0B6E044E04DC0F4013A
:102820002781308520FD02C080E401C088E48093C8
:10283000B00815964C9315978091B10887FFFCCF8F
:1028400016964C9316978091B0081092B008159682
:102850004C9315978091B10887FFFCCF16964C9347
:1028600016978091B008C901969587958093B00816
:1028700015964C9315978091B10887FFFCCF16965B
:102880004C9316978091B008F801E50FF11D8381F4
:102890008093B00815964C9315978091B10887FFE7
:1028A000FCCF16964C9316978091B0082F5F3F4F40
:1028B000F401278330875F5FF8018389581708F494
:1028C000AECFD9C0823009F067C071E0F0ECFF2EC6
:1028D000A0E0B6E064E05AC0F092B00815966C93A0
:1028E00015978091B10887FFFCCF16966C931697C9
:1028F0008091B008F401278130853093B008159697
:102900006C9315978091B10887FFFCCF16966C9356
:1029100016978091B0082093B00815966C93159780
:102920008091B10887FFFCCF16966C931697809123
:10293000B008F801E70FF11D83818093B008159668
:102940006C9315978091B10887FFFCCF16966C9316
:1029500016978091B0082F5F3F4FF401278330878F
:10296000209120093091210982EE94E040912009C4
:1029700050912109FA01E21BF30B8E179F0728F0F3
:102980008E1B9F0B11F09A01F1CF7F5FF8018389B5
:10299000781708F4A1CF6FC0833011F010E06CC03D
:1029A00071E0ECEAFE2EA0E0B6E064E05FC0F092D9
:1029B000B00815966C9315978091B10887FFFCCFEE
:1029C00016966C9316978091B008F40187819085D4
:1029D000FC01E370F070E15BFF4D20810196F40192
:1029E000878390872093B00815966C9315978091F4
:1029F000B10887FFFCCF16966C9316978091B008AC
:102A00001092B00815966C9315978091B10887FFC6
:102A1000FCCF16966C9316978091B008F801E70FDB
:102A2000F11D83818093B00815966C931597809162
:102A3000B10887FFFCCF16966C9316978091B0086B
:102A4000209120093091210981E792E040912009ED
:102A500050912109FA01E21BF30B8E179F0728F012
:102A60008E1B9F0B11F09A01F1CF7F5FF8018389D4
:102A7000781708F49CCF11E0D501ED91FC910190FD
:102A8000F081E02DC50160E80995D501ED91FC913B
:102A90000190F081E02DC50161E782C0F8018389D2
:102AA000853009F089C08381813009F063C0858158
:102AB000482F50E05695542F4427579547958481C9
:102AC00090E095958795482B592B2681922F9795C5
:102AD0009927979580E0482B592B8CE48093B00878
:102AE00084E0E0E0F6E085838091B10887FFFCCFC9
:102AF000E0E0F6E084E086839091B0085093B0085F
:102B000085838091B10887FFFCCFE0E0F6E084E0A8
:102B100086839091B0084093B00885838091B10876
:102B200087FFFCCFE0E0F6E084E086839091B00878
:102B30001092B00885838091B10887FFFCCF84E0B4
:102B4000E0E0F6E086838091B00820912009309182
:102B5000210981E792E04091200950912109BA01B1
:102B6000621B730B8617970748F0861B970B31F093
:102B70009A01F1CF10E08250823008F411E0D501C3
:102B8000ED91FC910190F081E02DC50160E809957F
:102B9000D501ED91FC910190F081E02DC50161E836
:102BA0000995D501ED91FC9181E018270190F08104
:102BB000E02DC501612F099581E02496CDBFDEBFD0
:102BC000CF91DF911F910F91FF90EF90DF90CF9009
:102BD000BF90AF909F908F907F906F905F904F903D
:102BE0003F902F900895CF93DF93EC0189A5882320
:102BF00061F188A58823D1F089A58630B9F4E0EA8F
:102C0000F8E0138298E0948382E0E0E6F6E08583C2
:102C1000E0E4F6E0918318A68EA18FA38C898D8BBA
:102C200083E089A703C0CE010E943D0B89A58330B4
:102C3000D1F787E089A780912009909121098A83A3
:102C40009B8384E0E0E0F6E08683DF91CF910895F6
:102C5000FC01828193810E94F3150895CF92DF9247
:102C6000EF92FF920F931F93CF93DF93EC018B01B1
:102C70006901FB011082E0902009F09021090EC04B
:102C800080912009909121098E199F09815D9740BB
:102C900010F081E01DC0C6010E94C50B9C898D8982
:102CA000981771F3F801108203C0CE010E943D0B0A
:102CB0009C898D899817C9F38D89FE01E80FF11D54
:102CC00094818D898F5F8F708D8BF801908380E068
:102CD000DF91CF911F910F91FF90EF90DF90CF90F8
:102CE0000895CF92DF92EF92FF920F931F93CF93AD
:102CF000DF93EC017A018B01C22E622F61506C6070
:102D000040E00E94F90ADD24D394CE016E2D40E00C
:102D10000E94F90AEF2CF02E012F1127D39484E0A2
:102D2000D81699F7CE016E2D4C2D0E94F90ADF912D
:102D3000CF911F910F91FF90EF90DF90CF9008956A
:102D4000CF92DF92EF92FF920F931F93CF93DF9377
:102D5000EC017A018B01C22E6CE440E00E94F90A7A
:102D6000DD24CE016E2D40E00E94F90AEF2CF02EFA
:102D7000012F1127D39484E0D81699F7CE016C2D3A
:102D800040E00E94F90ADF91CF911F910F91FF90CF
:102D9000EF90DF90CF900895DF92EF92FF920F9324
:102DA0001F93CF93DF93EC017A018B016BE640E038
:102DB0000E94F90ADD24CE016E2D40E00E94F90A3E
:102DC000EF2CF02E012F1127D39484E0D81699F719
:102DD000DF91CF911F910F91FF90EF90DF900895B9
:102DE0006F927F928F929F92AF92BF92CF92DF921B
:102DF000EF92FF920F931F93DF93CF930F92CDB774
:102E0000DEB78C014B015A016901E0902009F09076
:102E100021093E010894611C711CC8014FEC51E06E
:102E200060E071E021E00E947116C801B301A401C5
:102E300096010E942E16982F882369F4898187FFB6
:102E40000AC080912009909121098E199F09A81626
:102E5000B90618F792E0892F0F90CF91DF911F915B
:102E60000F91FF90EF90DF90CF90BF90AF909F9029
:102E70008F907F906F9008952F923F924F925F9224
:102E80006F927F928F929F92AF92BF92CF92DF927A
:102E9000EF92FF920F931F93DF93CF93CDB7DEB7DF
:102EA0002897CDBFDEBF4C017B013A01DB011196B3
:102EB0008C91843009F4A6C1853048F4823009F43D
:102EC00013C1833008F040C1813069F40EC08630F0
:102ED00009F433C3863008F4EAC2873009F4E8C342
:102EE000883009F479C480E018C5F4014281538127
:102EF000DB0114969C91149780E013962C9130E09E
:102F0000282B392B2115310511F021503040E0EAF2
:102F1000F8E026833783FA0181A58823F1F4E0E401
:102F2000F6E080E4818BA0E6B6E091E015969C93F4
:102F3000159782E08683818315968C9388E085833C
:102F40008183DA0199969C939997809120099091B9
:102F5000210912968D939C93139747E0A42EB12CD0
:102F6000A80CB91CD4011296ED91FC91139781A580
:102F7000833021F081A5863009F0E5C486A197A1B0
:102F80008F5F8F70891709F4DEC480A5882309F04C
:102F9000DAC420912009309121092D833E83CF018D
:102FA00061E049E50E942B0BD40112968D919C9112
:102FB000139761E841E00E94F90A1982F401448103
:102FC000558182819381BE016F5F7F4F95010E9481
:102FD0002E16E82E8823D9F5898180FD03C035E0BF
:102FE000E32E35C0D40112962D903C901397C10169
:102FF00060EE40E00E94F90A1FEFB8E8BF83E8EDF9
:10300000E8872DEC422E95E4592E8BEAC82E09E86C
:10301000D02E02E1FF24C101612F40E00E94F90A95
:10302000212F3F814885542D652D7C2D8D2D902F8E
:1030300008E00E94661F122F3F834887452E562EB8
:10304000C72ED82E092FF394F8E0FF1621F71A8225
:103050008E010E5F1F4FEE2029F52A8121FD77C4D6
:1030600080912009909121094D815E81841B950BEF
:10307000845D904308F06BC4D40112968D919C91AD
:10308000139760E841E00E94F90AF40144815581F8
:1030900082819381B80195010E942E16E82EDBCF24
:1030A000B3E0EB2ED40112968D919C9113970E9460
:1030B000F315D301ED91FC910190F081E02DC30156
:1030C00060E80995D301ED91FC910190F081E02D2C
:1030D000C30161E10995D301ED91FC910190F0816B
:1030E000E02DC3016E2D17C4D4011296ED91FC9111
:1030F000139781A5882369F081A5873051F0CF010E
:1031000061E040E00E942B0BF401828193810E94D8
:10311000F315D301ED91FC910190F081E02DC301F5
:1031200060E80995D301ED91FC910190F081E02DCB
:10313000C30161E20995D301ED91FC910190F08109
:10314000E02DC30160E0E7C3F40102811381C801EF
:1031500060E440E00E94F90AC8016AEC40E00E9485
:10316000F90AC80163E440E00E94F90AD40112960A
:103170008D919C91139740E950E060E071E024E06C
:103180000E947116D301ED91FC910190F081E02D28
:10319000C30160E80995D301ED91FC910190F081A4
:1031A000E02DC30165E30995A7E0EA2EF12CE80CB8
:1031B000F91C10E000E0F2E0CF2ED12CCC0EDD1E89
:1031C0001A82112351F4F401448155818281938143
:1031D000B60197010E942E16182FD301ED91FC9194
:1031E0000190F081E02DC3016A8109950F5F0430E1
:1031F00039F7112309F487C3F401828193810E9476
:10320000F31581C3FB018389873009F085C32381CE
:10321000822F8150823008F0A1C004811581568030
:10322000213031F0A12CB12CECE8CE2ED12C05C0F0
:10323000A12CB12C70E8C72ED12CD40112968D91FF
:103240009C911397213011F026E001C023E44AEC51
:1032500051E060E071E00E94A016912F80E0202FE5
:1032600030E0822B932BA0E0B0E0252D30E040E051
:1032700050E0A90133272227822B932BA42BB52BB7
:10328000A80EB91ECA1EDB1EF40182819381B6010D
:10329000A5010E94CC16D70119969C91199780E040
:1032A00018962C91022F10E0082B192B27E0A22E44
:1032B000B12CA80CB91C92E0492E512C4C0E5D1E6D
:1032C0000031110518F08FE0E82E01C0E02ED30187
:1032D000ED91FC910190F081E02DC30160E809952A
:1032E000D301ED91FC916E2D60640190F081E02D91
:1032F000C3010995FE2CCC2425C0F4018281938161
:1033000064E241E00E94F90A1A82CC2071F4D401EF
:1033100014964D915C91159712968D919C911397EF
:10332000B20195010E942E16C82ED301ED91FC9199
:103330000190F081E02DC3016A810995C5010E94C9
:10334000C50BFA94FF20C9F6BFE0EB1609F095C053
:10335000CC2009F095C00F501040B2CF233019F0A7
:10336000CC24C3948DC0FB015084F8E0F51510F413
:1033700018E0512ED40112968D919C9113974AEC2E
:1033800051E060E071E027E00E94A016D301ED91CA
:10339000FC910190F081E02DC30160E80995D30113
:1033A000ED91FC91652D60640190F081E02DC301E9
:1033B0000995F401A280B380D70114968C91E82E70
:1033C000FF2400E010E027E030E040E050E0E2229F
:1033D000F3220423152380E290E0AFE8B0E0E82A6E
:1033E000F92A0A2B1B2BA481B581AB83BC83B7E0E0
:1033F0002B2E312C280C391CCC243DC0452CBEE092
:10340000B51510F4AEE04A2ECC20A9F4C501B801E0
:10341000A7010E94CC16C50160EA40E00E94F90AAB
:10342000642D6150C50140E00E94F90AC50164E2C3
:10343000442D0E94F90ADD2417C01A82CC2051F4D1
:10344000C501BE016E5F7F4F4B815C8191010E947F
:103450002E16C82ED301ED91FC910190F081E02D44
:10346000C3016A810995D394D41439F7ED0CF11C8A
:10347000011D111D5D18552009F6CC2009F44CC220
:10348000F401828193810E94F315D301ED91FC91A7
:103490000190F081E02DC30160E80995D301ED9121
:1034A000FC910190F081E02DC30161E2F7C0FB01C6
:1034B0008389882311F010E02EC0D40112968D91DB
:1034C0009C9113974AEC51E060E071E020E40E9487
:1034D000A016F401828193814BEC51E060E071E031
:1034E00021E00E94A016D40114966D917C9115974D
:1034F0009401295F3F4F12968D919C9113974AE654
:1035000058E10E94F016182F882329F0F4018281D7
:1035100093810E94F315D301ED91FC910190F0810C
:10352000E02DC30160E80995D301ED91FC91019074
:10353000F081E02DC30161E5E5C1FB0183898530A0
:1035400008F4EAC1D3808D2D8150823008F07FC00D
:1035500044805580A680B780F1E0DF1631F0E12C81
:10356000F12CFCE80F2F112D05C0E12CF12CE0E827
:103570000E2F112DD40112968D919C911397B1E0CD
:10358000DB1611F026E301C026E24AEC51E060E0D0
:1035900071E00E94A016F401828193814BEC51E00E
:1035A00060E071E021E00E94A016D40114966D91B4
:1035B0007C9115979401295F3F4F12968D919C91B4
:1035C000139742EE54E00E94F016C82EF401828157
:1035D0009381CC2019F00E94F3154FC0F1E0DF1663
:1035E00011F023E301C023E24AEC51E060E071E016
:1035F0000E94A0162B2D30E040E050E0522F4427CF
:10360000332722278A2D90E0A0E0B0E0DC01992743
:103610008827282B392B4A2B5B2B952D80E0642D96
:1036200070E0862B972BA0E0B0E0282B392B4A2B9B
:103630005B2BE20EF31E041F151FD40112968D9111
:103640009C911397B801A7010E94CC1616C0B3E055
:10365000DB1619F0CC24C39410C0F401828193814D
:103660004AEC51E060E071E02CE40E94A016D70122
:1036700014968C91F4018683CC24D301ED91FC91B6
:103680000190F081E02DC30160E80995D301ED912F
:10369000FC910190F081E02DC30161E60995D30111
:1036A000ED91FC910190F081E02DC3016C2D33C1AF
:1036B000FB018389882309F42FC19381892F8150CD
:1036C000823048F5B7E0AB2EB12CA80CB91C01E054
:1036D0001CC0C5010E94C50BD4011296CD90DC9090
:1036E0001397F60196A187A1981799F7F701E00FB4
:1036F000F11D1381C60164E640E00E94F90AC6018B
:10370000612F40E00E94F90A0F5FD70153968C9118
:10371000081710F34EC0933009F04BC0A7E0CA2E33
:10372000D12CC80CD91C01E03FC0C6010E94C50BBA
:10373000F401A281B38196969C91969797968C916D
:103740009797981791F7468150E060E070E04770D6
:1037500050706070707040626F68F701E00FF11D8B
:10376000CD0123810E94A016D40114966D917C9105
:10377000159712968D919C91139744ED50E3960105
:103780000E94F016182F882329F0F401828193817A
:103790000E94F315D40116968C9116978F5F16969A
:1037A0008C93112339F40F5FF7018389081708F40C
:1037B000BFCF10E0D301ED91FC910190F081E02D9D
:1037C000C30160E80995D301ED91FC910190F0816E
:1037D000E02DC30161E796C0FB018389853009F0C4
:1037E0009BC02381A480B580C680D780822F815062
:1037F000823008F061C0213031F0E12CF12CFCE87E
:103800000F2F112D05C0E12CF12CE0E80E2F112D0A
:10381000D40112968D919C911397213011F025E3DC
:1038200001C02FE24AEC51E060E071E00E94A01676
:103830002D2D30E040E050E0522F4427332722273F
:103840008C2D90E0A0E0B0E0DC0199278827282BA0
:10385000392B4A2B5B2B9B2D80E06A2D70E0862B49
:10386000972BA0E0B0E0282B392B4A2B5B2BE20EE4
:10387000F31E041F151FF40182819381B801A70173
:1038800020E00E94A016D40114966D917C911597AA
:103890009401295F3F4F12968D919C9113974AE6B0
:1038A00058E10E94F016182F8823D9F0F401828184
:1038B00093810E94F31515C0233011F011E011C05F
:1038C000D40112968D919C91139761E040E00E9483
:1038D0002B0BF4018281938161E049E50E942B0B5F
:1038E00010E0D301ED91FC910190F081E02DC30136
:1038F00060E80995D301ED91FC910190F081E02DF4
:10390000C30161E80995D301ED91FC910190F0812B
:10391000E02DC301612F099581E02896CDBFDEBF60
:10392000CF91DF911F910F91FF90EF90DF90CF909B
:10393000BF90AF909F908F907F906F905F904F90CF
:103940003F902F900895C5010E94C50B0BCB21FF1E
:10395000A7CBAFCB0000000000000000000000007B
:103960000000000000000000000000000000000057
:103970000000000008950E94AA1C80E2E0E4F6E046
:10398000858308950E94AA1C80E2E0E4F6E0868325
:1039900008950F931F938C010E94BB1CC8010E94C5
:1039A000C21C1F910F9108955F926F927F928F9228
:1039B0009F92AF92BF92CF92DF92EF92FF920F93BE
:1039C0001F93CF93DF935C01EB016A01F98022E042
:1039D000F21609F464C02F1520F081E0F81649F4BE
:1039E0000AC0A3E0FA1609F4F3C0B4E0FB1609F428
:1039F0000BC180E085C12B89222309F480C1EB80B3
:103A000030E08E2D90E00F9643E0959587954A958E
:103A1000E1F7281739070CF472C1C5010E94BB1CDD
:103A20009924939480E4682E86E0782E02E0802E1C
:103A30001FC0FE2CE8E0EE1510F418E0F12EFE0198
:103A4000E90DF11D03811F2DC5010E94C21C00FF5D
:103A500004C0D30115968C9202C0F3018682C50181
:103A60000E94BB1C115011F00695EECFEF189394F5
:103A7000EE20F9F6C5010E94C21CD601ED91FC9121
:103A80000190F081E02DC60160E80995D601ED9125
:103A9000FC910190F081E02DC60160E1B3C08B89FB
:103AA000823008F42CC1EB80B0E7BE1508F427C1C2
:103AB000DA01ED91FC910190F081E02DCA0160E8FE
:103AC0000995D601ED91FC916B8960620190F081BE
:103AD000E02DC6010995D601ED91FC910190F08190
:103AE000E02DC6016E2D0995C5010E94BB1CC501C4
:103AF0000E94C21C00E416E0F801F58284E0E0E6D2
:103B0000F6E0858380E8D80111968C93C5010E9468
:103B1000BB1CC5010E94C21CF801F682C5010E94AF
:103B2000BB1C77247394B0E48B2EB6E09B2EA0E8E8
:103B30006A2EF2E05F2E33C01E2DF8E0FE1508F469
:103B400018E0E11AFE01E70DF11DF38000E0C50168
:103B50000E94C21CF0FE04C0D40115966C9202C0F3
:103B6000F4016682EE2029F4113019F4D40115967F
:103B70005C92C5010E94BB1C06958091480686FD9B
:103B80000068115011F0F694E2CFD601ED91FC914E
:103B90000190F081E02DC601602F09957394EE200D
:103BA00059F6C5010E94C21CA0E4B6E080E8129656
:103BB0008C93129784E0E0E6F6E0868382E0169626
:103BC0008C93C5010E94BB1CC5010E94C21C97C0FA
:103BD000DA01ED91FC910190F081E02DCA0160E8DD
:103BE0000995D601ED91FC910190F081E02DC6017F
:103BF00061E30995D601ED91FC910190F081E02DF2
:103C0000C60161E009957BC08B89843008F477C0D8
:103C10008C8190E0A0E0B0E0EE24F82E092F1A2F5E
:103C20008D8190E0A0E0B0E0DC0199278827E82AA8
:103C3000F92A0A2B1B2B8B8190E0A0E0B0E0E82A48
:103C4000F92A0A2B1B2B8E8190E0A0E0B0E0B82F60
:103C5000AA2799278827E82AF92A0A2B1B2B52E042
:103C6000852E912C8A0C9B1C44C0D801C701E1ED24
:103C7000EE16E7E0FE06E0E00E07E0E01E0720F0AB
:103C800080ED97E0A0E0B0E0EC01A0E0B0E0E81A41
:103C9000F90A0A0B1B0B0AC0C5010E94BB1CC40118
:103CA0000E94C50BC5010E94C21C21972097A1F755
:103CB000D601ED91FC910190F081E02DC60160E804
:103CC0000995D601ED91FC910190F081E02DC6019E
:103CD00061E40995D601ED91FC9160E0E114F104F5
:103CE0000105110509F461E00190F081E02DC601A4
:103CF0000995E114F1040105110509F0B6CF81E041
:103D0000DF91CF911F910F91FF90EF90DF90CF90B7
:103D1000BF90AF909F908F907F906F905F9008952D
:103D20001092CC201092CD2010920E2110920F21D3
:103D300010925121109252211092932110929421AD
:103D40001092D7211092D8211092192210921A2283
:103D50008DE190E280931C2290931D2289E290E2F3
:103D600080931E2290931F222AE830E22093212282
:103D7000309322221092352210923622109247223E
:103D80001092482210924A2210924D2210924E22F6
:103D900010924F22109250221092612210926222B1
:103DA0001092632210926422109275228FE290E2A8
:103DB000809376229093772281E292E28093782218
:103DC0009093792220937A2230937B2210927C2246
:103DD00087E490E280937E2290937F2280E292E2B9
:103DE0008093802290938122209382223093832299
:103DF000109284228DE690E280938822909389220B
:103E000020938D2230938E2281E080938F228091A7
:103E10008F22882349F08091200990912109809375
:103E200090229093912204C010929022109291229D
:103E300084ED90E380939222909393228AE890E21B
:103E4000809394229093952281E080939622809192
:103E50009622882349F0809120099091210980932E
:103E600097229093982204C0109297221092982241
:103E700088EA91E68093992290939A2210929B224D
:103E800010929C2210929D2210929E2210929F22AC
:103E90001092A02281E08093A1228093A22210920E
:103EA000A3221092A4221092A5221092A622109270
:103EB000A72286E690EF8093A8229093A9221092E1
:103EC000962210929722109298220895EF92FF92D4
:103ED0000F93DF93CF93CDB7DEB76097CDBFDEBF33
:103EE000A82F002309F461C07E010894E11CF11C95
:103EF00088E0F70111928A95E9F729833A834B8389
:103F00005C836D837E83AF83988780E2801BE82F7C
:103F1000FF27E7FDF0954D815E816F81788518164A
:103F200084F01D861E861F86188A882799278E1B77
:103F30009F0B04C076956795579547958A95D2F75C
:103F400028C0202F332727FD3095DB01CA01022E20
:103F500004C0B695A795979587950A94D2F78D8753
:103F60009E87AF87B88B04C0440F551F661F771F0D
:103F7000EA95D2F789819A81AB81BC8104C0B6955C
:103F8000A795979587952A95D2F7482B592B6A2B99
:103F90007B2B49875A876B877C8729853A854B8598
:103FA0005C856D857E85AF8598898A2F6096CDBFAB
:103FB000DEBFCF91DF910F91FF90EF900895991B95
:103FC00079E004C0991F961708F0961B881F7A9510
:103FD000C9F780950895EE0FFF1F0590F491E02D2D
:063FE0000994F894FFCFE4
:103FE6005368757069746F2076322E300A007374C8
:103FF6006174653A2025780A0000000000C20500B9
:104006000000002602000000009605000000009F48
:104016000528163C179B05000000009F059E059C81
:10402600059B05000000009F05BE0FC40F9B05E021
:10403600A0A8A4580000500000580800500800032B
:10404600300000300001300002000000009D0FAF7C
:104056000FD41CC91C747E7A333031323334353672
:0A4066003738394142434445460013
:108000000C94BC400C94CE400C94CE400C94CE40CA
:108010000C94CE400C94CE400C94CE400C94CE40A8
:108020000C94CE400C94CE400C94CE400C94CE4098
:108030000C94CE400C94CE400C94CE400C94CE4088
:108040000C94CE400C94CE400C94CE400C94CE4078
:108050000C94CE400C94CE400C94CE400C94CE4068
:108060000C94CE400C94CE400C94CE400C94CE4058
:108070000C94CE400C94CE400C94CE400C94CE4048
:108080000C94CE400C94CE400C94CE400C94CE4038
:108090000C94CE400C94CE400C94CE400C94CE4028
:1080A0000C94CE400C94CE400C94CE400C94CE4018
:1080B0000C94CE400C94CE400C94CE400C94CE4008
:1080C0000C94CE400C94CE400C94CE400C94CE40F8
:1080D0000C94CE400C94CE400C94CE400C94CE40E8
:1080E0000C94CE400C94CE400C94CE400C94CE40D8
:1080F0000C94CE400C94CE400C94CE400C94CE40C8
:108100000C94CE400C94CE400C94CE400C94CE40B7
:108110000C94CE400C94CE400C94CE400C94CE40A7
:108120000C94CE400C94CE400C94CE400C94CE4097
:108130000C94CE400C94CE400C94CE400C94CE4087
:108140000C94CE400C94CE400C94CE400C94CE4077
:108150000C94CE400C94CE400C94CE400C94CE4067
:108160000C94CE400C94CE400C94CE400C94CE4057
:108170000C94CE400C94CE4011241FBECFEFDFE212
:10818000DEBFCDBF10E2A0E0B0E201C01D92A13081
:10819000B107E1F70E941C440C9456460C94004031
:1081A000E0ECF1E09091CF0197FDFACF70E06F71B4
:1081B000707090E025E0880F991F2A95E1F7682BF1
:1081C000792B6093C001872F8F718183128286E0A3
:1081D0008287EBECF1E021E030E088ED90E084BFB5
:1081E00020838091C40108958091CF0187FDFCCF49
:1081F00008958091CF0187FDFCCF8091CF0181FF51
:108200000CC086E3E0ECF1E08287EBECF1E021E0EA
:1082100030E088ED90E084BF20830895DF93CF9312
:1082200000D00F92CDB7DEB74B836A8389830E945B
:10823000F940E0ECF1E093E392876A8170E06F71BE
:108240007070898190E035E0880F991F3A95E1F7C9
:10825000682B792B6083872F8F71818312824B81EA
:10826000448385E38287EBECF1E021E030E088EDA8
:1082700090E084BF20832396CDBFDEBFCF91DF91F6
:108280000895E0ECF1E09091CF0197FDFACF93E3F0
:1082900092878093C0011182128264830895DC0169
:1082A000E0ECF1E08091CF0187FDFACF83E3828794
:1082B0001182128290E09093C0018D9184839F5F20
:1082C0009032C9F70895E0ECF1E09091CF0197FD6D
:1082D000FACF90E045E0880F991F4A95E1F7809327
:1082E000C001892F8F718183128285E38287EBEC35
:1082F000F1E021E030E088ED90E084BF2083089534
:10830000E0ECF1E09091CF0197FDFACF90E055E0DD
:10831000880F991F5A95E1F78093C001892F8F71BB
:108320008183128282E38287EBECF1E021E030E08E
:1083300088ED90E084BF20830895E0ECF1E0909117
:10834000CF0197FDFACF90E065E0880F991F6A95FD
:10835000E1F78093C001892F8F718183128284E3BA
:108360008287EBECF1E021E030E088ED90E084BF23
:10837000208308958091CF0187FDFCCF80E3E0EC5E
:10838000F1E08287EBECF1E021E030E088ED90E075
:1083900084BF2083089510924006E0E6F6E083E073
:1083A0008583818308958FEF80934006E0E6F6E0B1
:1083B00083E0868382830895E0E6F6E022E0268368
:1083C000A0E4B6E018968C911897982F990F9A7A96
:1083D00086958575982B892F880F880F8C7C9695AC
:1083E00096959373892B829525830895E0E6F6E0B0
:1083F0009091680692FD1EC02FEF20934006982FA3
:10840000990F9A7A86958575982B892F880F880FF2
:108410008C7C969596959373892B8295A0E4B6E013
:1084200014968C9314972093400681E086831092D3
:10843000400685830895E0E6F6E09091680692FD97
:10844000FACF9091680692FD1EC02FEF2093400650
:10845000982F990F9A7A86958575982B892F880F72
:10846000880F8C7C969596959373892B8295A0E4C2
:10847000B6E014968C9314972093400681E086838F
:108480001092400685830895E0EAF4E010828AE0C5
:10849000808781E1838715860895E0EAF4E01086FD
:1084A0000895E0E8F6E0818188608183E0EAFAE0FF
:1084B00086E1868380EE87838CE184830895E0EAF9
:1084C000FAE01482089588ED84BF8FE180938000E4
:1084D0008091820080FDFCCF0895E0E8F0E080818B
:1084E0008C7F816098ED94BF8083089580910020F7
:1084F000823050F49091A10A97FFFACF81E08093E7
:1085000000208091A00A0895FFCF90910020923022
:1085100060F48093A00A8091A10A86FFFCCF80912D
:10852000A10A8064E0EAFAE0818308950E9476421D
:10853000382F0E947642282FC9010895EF92FF92AA
:108540001F93CF93DF93EC01162F7A01653459F511
:108550008091CC01877FE0ECF1E084870E94F940B4
:10856000F70160817181828193819B01AC0175E08B
:1085700056954795379527957A95D1F76F71822F44
:108580000E94D0400E948542F70180819181A281A2
:10859000B3810196A11DB11D80839183A283B38312
:1085A0002197F1F663C0663429F0653519F060351E
:1085B00009F05CC0F70180819181A281B381880FAD
:1085C000991FAA1FBB1F80839183A283B383163494
:1085D000A9F4F70160817181828193810E94BE4577
:1085E0000E948542F70160817181828193816F5F72
:1085F0007F4F8F4F9F4F0E94BE451DC0153571F4B0
:10860000F701808191810E94CD450E948542F7014A
:108610008081918101960E94CD450DC0103569F48D
:10862000F70180810E94CB450E948542F70180813D
:108630008F5F0E94CB450E9485420E943946F70118
:1086400080819181A281B3810296A11DB11D808399
:108650009183A283B383229709F0B9CFB695A795EA
:108660009795879580839183A283B383DF91CF9180
:108670001F91FF90EF9008952F923F924F925F923B
:108680006F927F928F929F92AF92BF92CF92DF9222
:10869000EF92FF920F931F93DF93CF93CDB7DEB787
:1086A000C050D140CDBFDEBF7C01162F5A016534CA
:1086B00009F056C00E94F9408091CC01877FE0EC20
:1086C000F1E084872224332421013701882499246E
:1086D0008E010F5F1F4F0BC00E947642F801E20D22
:1086E000F31D80830894211C311C411C511C26144D
:1086F00037044804590480F3CC24DD2476018E012C
:108700000F5F1F4F27C0F5016081718182819381C6
:108710009B01AC0185E056954795379527958A953D
:10872000D1F76F71F801EC0DFD1D822F40810E9481
:108730000E41F50180819181A281B3810196A11D35
:10874000B11D80839183A283B3830894C11CD11C83
:10875000E11CF11CC614D704E804F904A0F254C0CB
:10876000663421F0653511F08FE34FC0F50160806C
:10877000718082809380660C771C881C991C6082B3
:108780007182828293820E947642282E33240E9434
:108790007642D82ECC24B60162297329F501808156
:1087A00091810E94F645F50180819181A281B3817A
:1087B0000296A11DB11D80839183A283B3838EEFA6
:1087C0009FEFE80EF91EE114F104E9F6163429F4DE
:1087D000C401B3010E94124608C0153531F40E944D
:1087E000E1450E9439460E94E5450E943946F5015F
:1087F00080819181A281B381B695A7959795879540
:1088000080839183A283B3838DE0C050DF4FCDBFBF
:10881000DEBFCF91DF911F910F91FF90EF90DF901E
:10882000CF90BF90AF909F908F907F906F905F9010
:108830004F903F902F9008956F927F928F929F92CA
:10884000AF92BF92CF92DF92EF92FF920F931F935E
:10885000DF93CF93CDB7DEB72697CDBFDEBF1A82A9
:108860001B821C821D821982109200200E9451429C
:1088700000000000000000008091780085FD02C02B
:1088800080E004C080E28093780081E090917800DD
:1088900091FF4EC182E08093780081E049C10E943F
:1088A00076428983813611F489E53AC1813429F40D
:1088B0000E949642A0E0B0E008C0883459F40E94BB
:1088C0007642A82F0E949642BB278A839B83AC8363
:1088D000BD830BC0853659F40E94E9450E94394694
:1088E000C5010E944F410E94BA418DE019C18236F4
:1088F00029F489E50E94854281E0DBC0823481F45D
:108900000E949642982E092D192F9E830E9476422E
:10891000682F8983892D9E81A7010E943C4300C155
:10892000873681F40E949642982E092D192F9E8336
:108930000E947642682F8983892D9E81A7010E941B
:108940009E42F0C08235D9F46A817B818C819D8101
:10895000660F771F881F991F6F5F7F4F8F4F9F4F45
:108960000E94BE450E9485426A817B818C819D81E7
:10897000660F771F881F991F0E94BE455EC0833611
:1089800029F40E947642082F10E0AFCF8334A9F477
:108990000E947642D82ECC240C291D298A819B81E5
:1089A000880F991FB8010E94F6458A819B81AC818E
:1089B000BD810196A11DB11D88CF8D36A1F46A81BC
:1089C0007B818C819D81603020E4720720E08207EA
:1089D00020E0920708F0A3C0660F771F881F991F39
:1089E0000E940C4682CF8434A9F46A807B808C80FC
:1089F0009D800E947642482FD401C301E5E0B695E0
:108A0000A79597958795EA95D1F7662D6F710E9486
:108A10000E4115C08436F9F46A817B818C819D8179
:108A20009B01AC0175E056954795379527957A954A
:108A3000D1F76F71822F0E94D0400E9485428A81B7
:108A40009B81AC81BD810196A11DB11D8A839B8351
:108A5000AC83BD8367C08C3629F40E9476420E94A5
:108A6000DA4543CF823719F40E94DE4559C0863477
:108A700011F480E007C08E3411F481E003C0813529
:108A800021F482E00E94CF454BC0803509F42DCF00
:108A90008C3409F42ACF853429F48DE00E94854274
:108AA00080E041C0803711F483E53AC0843729F46F
:108AB0008BE70E94854280E033C0982F9857923010
:108AC00010F0843519F40E9476420FCF8335A1F45B
:108AD00088E50E94854282E40E9485428FE60E94DA
:108AE00085428FE60E94854284E70E9485428BE2A0
:108AF0000E9485428BE214C0863529F481E30E94EE
:108B0000854286E30DC0833741F481E40E948542AB
:108B100085E90E9485428EE103C08B3119F08FE315
:108B20000E94854281E08E830E9439468E8109C071
:108B300092E0E92EF12CEC0EFD1E5E010894A11CC2
:108B4000B11C882309F0ABCE0E945F421CBEE0E05E
:108B5000F0E0099580E090E02696CDBFDEBFCF9192
:108B6000DF911F910F91FF90EF90DF90CF90BF901A
:108B7000AF909F908F907F906F9008953BB78BBF81
:108B8000FB0186913BBF08953BB78BBFFB018791EB
:108B900096913BBF089542E084C041E082C080933B
:108BA000C00188278093C1018093C20147E069D04A
:108BB000CB0108958093C40148E063C08091D00147
:108BC00008953BB748E10C946B463BB74AE10C94DF
:108BD0006B463BB7882799278BBF40E20C946B46C6
:108BE0003BB78BBFCB0142E20C946B463BB70B010A
:108BF00043E20C946B463BB76BBFFA0119BEDC0134
:108C000040E04093CA0150E0879197918D939D93E6
:108C10005A95D1F73BBF08953BB78BBFCB0144E2D8
:108C20000C946B463BB78BBFCB0145E20C946B4673
:108C30003BB746E20C946B463BB78BBFCB014AE295
:108C40000C946B463BB78BBFCB014CE20C946B464C
:108C50003BB78BBFCB014DE20C946B4648E311C090
:108C600049E30FC028ED2093340021E02093CC018C
:108C700008952091CF0127FDFCCF22272093CA0120
:108C800008954093CA0128ED31E0209334003093D9
:108C9000CB016091C4017091C5018091C6019927F3
:108CA0000895FC014093CA0184910895F894FFCF80
:108CB000EE27FF2719BEDC0143E24093CA0150E8CA
:108CC0002DE90D901D9020933400E89532965A9529
:108CD000C1F711240895FC014093CA012DE92093A6
:0A8CE0003400E89511243BBF08950D
:00000001FF
