:0C00000028ED31E024BF30937900FFCFE1
:108000000C94BC400C94CE400C94CE400C94CE40CA
:108010000C94CE400C94CE400C94CE400C94CE40A8
:108020000C94CE400C94CE400C94CE400C94CE4098
:108030000C94CE400C94CE400C94CE400C94CE4088
:108040000C94CE400C94CE400C94CE400C94CE4078
:108050000C94CE400C94CE400C94CE400C94CE4068
:108060000C94CE400C94CE400C94CE400C94CE4058
:108070000C94CE400C94CE400C94CE400C94CE4048
:108080000C94CE400C94CE400C94CE400C94CE4038
:108090000C94CE400C94CE400C94CE400C94CE4028
:1080A0000C94CE400C94CE400C94CE400C94CE4018
:1080B0000C94CE400C94CE400C94CE400C94CE4008
:1080C0000C94CE400C94CE400C94CE400C94CE40F8
:1080D0000C94CE400C94CE400C94CE400C94CE40E8
:1080E0000C94CE400C94CE400C94CE400C94CE40D8
:1080F0000C94CE400C94CE400C94CE400C94CE40C8
:108100000C94CE400C94CE400C94CE400C94CE40B7
:108110000C94CE400C94CE400C94CE400C94CE40A7
:108120000C94CE400C94CE400C94CE400C94CE4097
:108130000C94CE400C94CE400C94CE400C94CE4087
:108140000C94CE400C94CE400C94CE400C94CE4077
:108150000C94CE400C94CE400C94CE400C94CE4067
:108160000C94CE400C94CE400C94CE400C94CE4057
:108170000C94CE400C94CE4011241FBECFEFDFE212
:10818000DEBFCDBF10E2A0E0B0E201C01D92A13081
:10819000B107E1F70E941C440C9456460C94004031
:1081A000E0ECF1E09091CF0197FDFACF70E06F71B4
:1081B000707090E025E0880F991F2A95E1F7682BF1
:1081C000792B6093C001872F8F718183128286E0A3
:1081D0008287EBECF1E021E030E088ED90E084BFB5
:1081E00020838091C40108958091CF0187FDFCCF49
:1081F00008958091CF0187FDFCCF8091CF0181FF51
:108200000CC086E3E0ECF1E08287EBECF1E021E0EA
:1082100030E088ED90E084BF20830895DF93CF9312
:1082200000D00F92CDB7DEB74B836A8389830E945B
:10823000F940E0ECF1E093E392876A8170E06F71BE
:108240007070898190E035E0880F991F3A95E1F7C9
:10825000682B792B6083872F8F71818312824B81EA
:10826000448385E38287EBECF1E021E030E088EDA8
:1082700090E084BF20832396CDBFDEBFCF91DF91F6
:108280000895E0ECF1E09091CF0197FDFACF93E3F0
:1082900092878093C0011182128264830895DC0169
:1082A000E0ECF1E08091CF0187FDFACF83E3828794
:1082B0001182128290E09093C0018D9184839F5F20
:1082C0009032C9F70895E0ECF1E09091CF0197FD6D
:1082D000FACF90E045E0880F991F4A95E1F7809327
:1082E000C001892F8F718183128285E38287EBEC35
:1082F000F1E021E030E088ED90E084BF2083089534
:10830000E0ECF1E09091CF0197FDFACF90E055E0DD
:10831000880F991F5A95E1F78093C001892F8F71BB
:108320008183128282E38287EBECF1E021E030E08E
:1083300088ED90E084BF20830895E0ECF1E0909117
:10834000CF0197FDFACF90E065E0880F991F6A95FD
:10835000E1F78093C001892F8F718183128284E3BA
:108360008287EBECF1E021E030E088ED90E084BF23
:10837000208308958091CF0187FDFCCF80E3E0EC5E
:10838000F1E08287EBECF1E021E030E088ED90E075
:1083900084BF2083089510924006E0E6F6E083E073
:1083A0008583818308958FEF80934006E0E6F6E0B1
:1083B00083E0868382830895E0E6F6E022E0268368
:1083C000A0E4B6E018968C911897982F990F9A7A96
:1083D00086958575982B892F880F880F8C7C9695AC
:1083E00096959373892B829525830895E0E6F6E0B0
:1083F0009091680692FD1EC02FEF20934006982FA3
:10840000990F9A7A86958575982B892F880F880FF2
:108410008C7C969596959373892B8295A0E4B6E013
:1084200014968C9314972093400681E086831092D3
:10843000400685830895E0E6F6E09091680692FD97
:10844000FACF9091680692FD1EC02FEF2093400650
:10845000982F990F9A7A86958575982B892F880F72
:10846000880F8C7C969596959373892B8295A0E4C2
:10847000B6E014968C9314972093400681E086838F
:108480001092400685830895E0EAF4E010828AE0C5
:10849000808781E1838715860895E0EAF4E01086FD
:1084A0000895E0E8F6E0818188608183E0EAFAE0FF
:1084B00086E1868380EE87838CE184830895E0EAF9
:1084C000FAE01482089588ED84BF8FE180938000E4
:1084D0008091820080FDFCCF0895E0E8F0E080818B
:1084E0008C7F816098ED94BF8083089580910020F7
:1084F000823050F49091A10A97FFFACF81E08093E7
:1085000000208091A00A0895FFCF90910020923022
:1085100060F48093A00A8091A10A86FFFCCF80912D
:10852000A10A8064E0EAFAE0818308950E9476421D
:10853000382F0E947642282FC9010895EF92FF92AA
:108540001F93CF93DF93EC01162F7A01653459F511
:108550008091CC01877FE0ECF1E084870E94F940B4
:10856000F70160817181828193819B01AC0175E08B
:1085700056954795379527957A95D1F76F71822F44
:108580000E94D0400E948542F70180819181A281A2
:10859000B3810196A11DB11D80839183A283B38312
:1085A0002197F1F663C0663429F0653519F060351E
:1085B00009F05CC0F70180819181A281B381880FAD
:1085C000991FAA1FBB1F80839183A283B383163494
:1085D000A9F4F70160817181828193810E94BE4577
:1085E0000E948542F70160817181828193816F5F72
:1085F0007F4F8F4F9F4F0E94BE451DC0153571F4B0
:10860000F701808191810E94CD450E948542F7014A
:108610008081918101960E94CD450DC0103569F48D
:10862000F70180810E94CB450E948542F70180813D
:108630008F5F0E94CB450E9485420E943946F70118
:1086400080819181A281B3810296A11DB11D808399
:108650009183A283B383229709F0B9CFB695A795EA
:108660009795879580839183A283B383DF91CF9180
:108670001F91FF90EF9008952F923F924F925F923B
:108680006F927F928F929F92AF92BF92CF92DF9222
:10869000EF92FF920F931F93DF93CF93CDB7DEB787
:1086A000C050D140CDBFDEBF7C01162F5A016534CA
:1086B00009F056C00E94F9408091CC01877FE0EC20
:1086C000F1E084872224332421013701882499246E
:1086D0008E010F5F1F4F0BC00E947642F801E20D22
:1086E000F31D80830894211C311C411C511C26144D
:1086F00037044804590480F3CC24DD2476018E012C
:108700000F5F1F4F27C0F5016081718182819381C6
:108710009B01AC0185E056954795379527958A953D
:10872000D1F76F71F801EC0DFD1D822F40810E9481
:108730000E41F50180819181A281B3810196A11D35
:10874000B11D80839183A283B3830894C11CD11C83
:10875000E11CF11CC614D704E804F904A0F254C0CB
:10876000663421F0653511F08FE34FC0F50160806C
:10877000718082809380660C771C881C991C6082B3
:108780007182828293820E947642282E33240E9434
:108790007642D82ECC24B60162297329F501808156
:1087A00091810E94F645F50180819181A281B3817A
:1087B0000296A11DB11D80839183A283B3838EEFA6
:1087C0009FEFE80EF91EE114F104E9F6163429F4DE
:1087D000C401B3010E94124608C0153531F40E944D
:1087E000E1450E9439460E94E5450E943946F5015F
:1087F00080819181A281B381B695A7959795879540
:1088000080839183A283B3838DE0C050DF4FCDBFBF
:10881000DEBFCF91DF911F910F91FF90EF90DF901E
:10882000CF90BF90AF909F908F907F906F905F9010
:108830004F903F902F9008956F927F928F929F92CA
:10884000AF92BF92CF92DF92EF92FF920F931F935E
:10885000DF93CF93CDB7DEB72697CDBFDEBF1A82A9
:108860001B821C821D821982109200200E9451429C
:1088700000000000000000008091780085FD02C02B
:1088800080E004C080E28093780081E090917800DD
:1088900091FF4EC182E08093780081E049C10E943F
:1088A00076428983813611F489E53AC1813429F40D
:1088B0000E949642A0E0B0E008C0883459F40E94BB
:1088C0007642A82F0E949642BB278A839B83AC8363
:1088D000BD830BC0853659F40E94E9450E94394694
:1088E000C5010E944F410E94BA418DE019C18236F4
:1088F00029F489E50E94854281E0DBC0823481F45D
:108900000E949642982E092D192F9E830E9476422E
:10891000682F8983892D9E81A7010E943C4300C155
:10892000873681F40E949642982E092D192F9E8336
:108930000E947642682F8983892D9E81A7010E941B
:108940009E42F0C08235D9F46A817B818C819D8101
:10895000660F771F881F991F6F5F7F4F8F4F9F4F45
:108960000E94BE450E9485426A817B818C819D81E7
:10897000660F771F881F991F0E94BE455EC0833611
:1089800029F40E947642082F10E0AFCF8334A9F477
:108990000E947642D82ECC240C291D298A819B81E5
:1089A000880F991FB8010E94F6458A819B81AC818E
:1089B000BD810196A11DB11D88CF8D36A1F46A81BC
:1089C0007B818C819D81603020E4720720E08207EA
:1089D00020E0920708F0A3C0660F771F881F991F39
:1089E0000E940C4682CF8434A9F46A807B808C80FC
:1089F0009D800E947642482FD401C301E5E0B695E0
:108A0000A79597958795EA95D1F7662D6F710E9486
:108A10000E4115C08436F9F46A817B818C819D8179
:108A20009B01AC0175E056954795379527957A954A
:108A3000D1F76F71822F0E94D0400E9485428A81B7
:108A40009B81AC81BD810196A11DB11D8A839B8351
:108A5000AC83BD8367C08C3629F40E9476420E94A5
:108A6000DA4543CF823719F40E94DE4559C0863477
:108A700011F480E007C08E3411F481E003C0813529
:108A800021F482E00E94CF454BC0803509F42DCF00
:108A90008C3409F42ACF853429F48DE00E94854274
:108AA00080E041C0803711F483E53AC0843729F46F
:108AB0008BE70E94854280E033C0982F9857923010
:108AC00010F0843519F40E9476420FCF8335A1F45B
:108AD00088E50E94854282E40E9485428FE60E94DA
:108AE00085428FE60E94854284E70E9485428BE2A0
:108AF0000E9485428BE214C0863529F481E30E94EE
:108B0000854286E30DC0833741F481E40E948542AB
:108B100085E90E9485428EE103C08B3119F08FE315
:108B20000E94854281E08E830E9439468E8109C071
:108B300092E0E92EF12CEC0EFD1E5E010894A11CC2
:108B4000B11C882309F0ABCE0E945F421CBEE0E05E
:108B5000F0E0099580E090E02696CDBFDEBFCF9192
:108B6000DF911F910F91FF90EF90DF90CF90BF901A
:108B7000AF909F908F907F906F9008953BB78BBF81
:108B8000FB0186913BBF08953BB78BBFFB018791EB
:108B900096913BBF089542E084C041E082C080933B
:108BA000C00188278093C1018093C20147E069D04A
:108BB000CB0108958093C40148E063C08091D00147
:108BC00008953BB748E10C946B463BB74AE10C94DF
:108BD0006B463BB7882799278BBF40E20C946B46C6
:108BE0003BB78BBFCB0142E20C946B463BB70B010A
:108BF00043E20C946B463BB76BBFFA0119BEDC0134
:108C000040E04093CA0150E0879197918D939D93E6
:108C10005A95D1F73BBF08953BB78BBFCB0144E2D8
:108C20000C946B463BB78BBFCB0145E20C946B4673
:108C30003BB746E20C946B463BB78BBFCB014AE295
:108C40000C946B463BB78BBFCB014CE20C946B464C
:108C50003BB78BBFCB014DE20C946B4648E311C090
:108C600049E30FC028ED2093340021E02093CC018C
:108C700008952091CF0127FDFCCF22272093CA0120
:108C800008954093CA0128ED31E0209334003093D9
:108C9000CB016091C4017091C5018091C6019927F3
:108CA0000895FC014093CA0184910895F894FFCF80
:108CB000EE27FF2719BEDC0143E24093CA0150E8CA
:108CC0002DE90D901D9020933400E89532965A9529
:108CD000C1F711240895FC014093CA012DE92093A6
:0A8CE0003400E89511243BBF08950D
:00000001FF
