:100000000C944C000C9469000C9469000C946900E9
:100010000C9469000C9469000C9469000C946900BC
:100020000C9469000C9469000C9469000C946900AC
:100030000C9469000C9469000C9469000C9469009C
:100040000C9469000C9469000C9469000C9469008C
:100050000C9469000C9469000C9469000C9469007C
:100060000C9469000C9469000C9469000C9469006C
:100070000C9469000C9469000C9469000C9469005C
:100080000C9469000C9469000C9469000C9469004C
:100090000C9469000C94690011241FBECFEFD2E0CC
:1000A000DEBFCDBF11E0A0E0B1E0E8E2F3E002C0C6
:1000B00005900D92AC3CB107D9F711E0ACECB1E082
:1000C00001C01D92AD3CB107E1F70E946B000C949A
:1000D00092010C940000DF93CF93CDB7DEB7619708
:1000E0000FB6F894DEBF0FBECDBF04B603FC17C138
:1000F00086E48093CA0088E18093C900E1E0F1E0E2
:1001000095E58091C80085FFFCCF9093CE0091913A
:100110009923B9F72091CC01CE0101963AE04091A4
:10012000C80047FFFCCF4091C80047FFFCCF40917B
:10013000CE00E22FF0E0E953FE4F50812F5F4517CC
:1001400009F48FC020E050E04F3309F491C04034EF
:100150000CF048C04B3209F498C04D3211F0252FF5
:10016000DECF40916600415040936600EDEAF1E039
:100170005FE44091C80045FFFCCF5093CE00519101
:100180005523B9F750916600FC01A6EBB1E041E1BF
:100190000D9001924150E1F7E52FF0E0DF01B595B8
:1001A000A795B595A795B595A795B595A795A80FCA
:1001B000B91F5C914091C80045FFFCCF5093CE0021
:1001C000EF70F070E80FF91F50814091C80045FFB3
:1001D000FCCF5093CE004091C80045FFFCCF309338
:1001E000CE009DCF4F3609F0BACFEDEAF1E05FE4E3
:1001F0004091C80045FFFCCF5093CE00519155234C
:10020000B9F750916600FC01A6EBB1E041E10D9019
:1002100001924150E1F7E52FF0E0DF01B595A79598
:10022000B595A795B595A795B595A795A80FB91FAD
:100230005C914091C80045FFFCCF5093CE00EF7019
:10024000F070E80FF91F50814091C80045FFFCCFC6
:100250005093CE004091C80045FFFCCF3093CE00B4
:100260005ECF243009F452C0522F4F3309F06FCFC4
:10027000E1E0F1E055E54091C80045FFFCCF509327
:10028000CE0051915523B9F74ACF409166004F5F98
:1002900040936600EDEAF1E05FE44091C80045FF5D
:1002A000FCCF5093CE0051915523B9F75091660081
:1002B000FC01A6EBB1E041E10D9001924150E1F764
:1002C000E52FF0E0DF01B595A795B595A795B59514
:1002D000A795B595A795A80FB91F5C914091C80047
:1002E00045FFFCCF5093CE00EF70F070E80FF91F80
:1002F00050814091C80045FFFCCF5093CE00409103
:10030000C80045FFFCCF3093CE0009CF2093CC012D
:1003100088E18093600088E080936000FFCF0E94B6
:08032000000FE6CEF894FFCFB8
:1003280055736520617672323332636C69656E7419
:1003380020746F20666C61736820612070726F672B
:1003480072616D20696E746F207468697320656DC1
:1003580070747920636869702E0A47657420746820
:100368006520636C69656E742061742068747470AC
:100378003A2F2F746563686E696B612E6A756E69B2
:100388006F722E637A2F747261632F77696B692F8E
:10039800617672323332636C69656E742E0A43611A
:1003A8006C696272617465206F7363696C6C6174E7
:1003B8006F72207573696E6720276F272C20272B93
:1003C800272C20616E6420272D270A004F534343B2
:1003D800414C3D3078003031323334353637383996
:0C03E80061626364656600747E7A330015
:101E0000332714B734BF28E120936000309360007B
:101E100013FD04C011FD02C00C9400002FEF2DBF74
:101E200022E02EBF26E42093CA0028E12093C900B7
:101E30004BD05437E9F748D05E37D1F745D05A3701
:101E4000B9F742D05333A1F704E145D03DD050312A
:101E500039F0513131F1523171F1543761F3E8CF3A
:101E600033D0F52F31D0E52FE07860E42DD0052E6A
:101E70002BD0152E01E007BFE895E395E3956A9511
:101E8000A9F7E05803E007BFE89507D005E007BFD2
:101E9000E89503D004E11FD0D9CF77B770FDFDCF0F
:101EA000089501E107BFE8953093C90026E020932B
:101EB000CA000C9400000DE60ED008E30CD005E734
:101EC0000AD002E308D0C2CF5091C80057FFFCCF20
:101ED0005091CE0008958091C80085FBE6F70093ED
:041EE000CE00089593
:00000001FF
