:100000000C9499000C94C1000C94C1000C94C10094
:100010000C94C1000C94C1000C94C1000C94C1005C
:100020000C94C1000C94C1000C94C1000C94C1004C
:100030000C94C1000C94C1000C94C1000C94C1003C
:100040000C94C1000C94C1000C94C1000C94C1002C
:100050000C94C1000C94C1000C94C1000C94DB0002
:100060000C94C1000C94C1000C94C1000C94C1000C
:100070000C94C1000C94C1000C94C1000C94C100FC
:100080000C94C1000C94C1000C94C1000C94C100EC
:100090000C94C1000C94C100120100020200002067
:1000A000614A9A670100010200010902430002014E
:1000B0000080320904000001020201000524000052
:1000C00001052401000104240200052406000107A3
:1000D00005810308001009040100020A000000075E
:1000E0000503024000010705840220000104030902
:1000F0000424034D0061006E00750066006100631A
:10010000007400750072006500720020004E0061EE
:10011000006D0065001A03500072006F00640075E6
:10012000006300740020004E0061006D0065000057
:100130008A0311241FBECFEFD2E0DEBFCDBF11E096
:10014000A0E0B1E0EAE5F7E002C005900D92A2322E
:10015000B107D9F711E0A2E2B1E001C01D92A83ABF
:10016000B107E1F711E0C2E3D1E004C02297FE013C
:100170000E94A703C033D107C9F70E9434010C9431
:10018000AB030C940000DC018C91E82FF0E0E25E00
:10019000FE4F90818F5F8C9396131C928C918430CC
:1001A00041F4F89488E18093600088E080936000D7
:1001B000FFCF862F08951F920F920FB60F92112432
:1001C0008F939F93EF93FF938091C80087FF0DC09B
:1001D0009091CE0080916301E82FF0E0EE5DFE4F3C
:1001E00091838F5F8F7380936301FF91EF919F9154
:1001F0008F910F900FBE0F901F901895DC011D96E8
:100200008C911D97863029F0803269F1853041F557
:100210001EC020E00BC084918093F1002F5F3196C7
:100220001F96FC93EE931E97203259F01E96ED9187
:10023000FC911F9750968D919C915197E817F90763
:1002400051F78EEF8093E800203268F405C080916A
:10025000E30080688093E3008FEF1D968C930895F0
:100260008FEF1D968C9308952F923F924F925F923D
:100270006F927F928F929F92AF92BF92CF92DF92B6
:10028000EF92FF920F931F93DF93CF93CDB7DEB71B
:1002900062970FB6F894DEBF0FBECDBF81E08093AA
:1002A0006300789486E48093CA0088E18093C90053
:1002B0008091C90080688093C90083E08093CB005F
:1002C0001C821B821E821D8219861A868091D8008C
:1002D00080688093D80082E089BD09B400FEFDCF1C
:1002E00082E291E09A83898381E088878CEC8B8716
:1002F0001C861D868FEF8E87F8948091D8008F7DA5
:100300008093D8001092E90081E08093EB00109276
:10031000EC0082E28093ED001092E0001092E10088
:10032000789481E08F834424439422242A948EEF8E
:10033000582E0BEF302E2F819091A5018091A601B0
:10034000981791F08091C80085FF0EC0E091A6013A
:10035000F0E0EB59FE4F80818093CE008091A601A2
:100360008F5F8F738093A601222331F38091E10088
:1003700083FF0CC027EF2093E1001092E900409228
:10038000EB001092EC0082E28093ED001092E90005
:100390008091E80083FFB6C08091F1009091F10058
:1003A0008091F100482F50E08091F100982E882430
:1003B000482959298091F1008091F100A091F10024
:1003C000B091F100E7EFE093E8009E879630E9F006
:1003D000973030F4992369F0953009F08FC00EC042
:1003E000903209F48FC0923269F0993009F086C0DA
:1003F0005DC01092F1001092F10004C0842F8F773D
:100400008093E3005092E8007DC0188A1F861A8A04
:10041000198AE0E0F1E020E030E0808191818417EA
:100420009507F9F4C90163E070E00E949303FC01B1
:10043000EE0FFF1FEE5FFE4F8081918188569F4F28
:10044000988B8F87C90166E070E00E949303FC01DE
:10045000E050FF4F8481958188569F4F9A8B898BFE
:1004600006C02F5F3F4F369627393105B1F64F85CD
:1004700058894115510521F4F1E2F093EB0041C098
:100480002A2F30E07B2E66242629372989899A89EC
:10049000841B950B2817390720F4420F531F5A8BE2
:1004A000498BCE0101960E94FE002CC02AE12093C8
:1004B000EA001092EA004092E9009093EB0081EC90
:1004C0008093EC00E2E0E093ED00F3E0F093E900CC
:1004D0009093EB0020E82093EC0082E38093ED0002
:1004E000E4E0E093E9009093EB00F1E8F093EC0096
:1004F00026E22093ED001092E90084CF81E2809300
:10050000EB002E868E858F3F41F08091E80080FFC2
:1005100004C0CE0101960E94FE008091E80082FF97
:100520003DC08E858032C1F5A090F100BB24CC2463
:10053000DD248091F1002091F100E090F10090E045
:10054000A0E0B0E0BA2FA92F982F882730E040E034
:1005500050E0A90133272227822B932BA42BB52B04
:100560008A299B29AC29BD291886FF2400E010E0C8
:100570001E2D0027FF24EE248E299F29A02BB12BAE
:10058000825D9440A040B04009F448863092E80073
:100590002E865092E80002C03092E8004092E900B6
:1005A0008091E80086FF03C0FFEBF093E80023E0B2
:1005B0002093E9008FEE8093E8008C85882339F43E
:1005C0008091E80082FF03C03092E8004C868C8561
:1005D000882371F541C0F8949091A5018091A601FE
:1005E000981791F08091C80085FF0EC0E091A60198
:1005F000F0E0EB59FE4F80818093CE008091A60100
:100600008F5F8F738093A60178948091A50190915C
:10061000A6018F5F8F738917F1F28091A501E82FF2
:10062000F0E0EB59FE4F20838F5F8F738093A5011D
:100630008091A5019091A6018F5F8F73891709F4AE
:1006400060C08091E80085FF5CC02091F100DDCFA3
:10065000EFE7E093E8001C86F4E0F093E900E9811D
:10066000FA81EF5BFF4F91918081981709F463CE77
:100670008091E80080FF5FCE2AEF2093E8002EC033
:10068000F8948091C80087FF0CC09091CE00F901CA
:100690008081FD01E80FF11D91838F5F8F73F90158
:1006A0008083789401C0BA01F9019081FB018081B7
:1006B000981731F3FA018081A80FB11D1196EC90C3
:1006C00080818F5F8F7380838885882329F0CE0196
:1006D0000D966E2D0E94C300E092F100A981BA81AF
:1006E0009D012F5B3F4FF9019081AD014E5B5F4F44
:1006F000FA018081981751F08091E80085FF06C0CB
:10070000D2CF8091E80085FFA3CFA6CFFBE7F0937F
:10071000E80011CE10926301109264011092A501BD
:100720001092A60108955527002480FF02C0060EEE
:10073000571F660F771F6115710521F096958795F4
:10074000009799F7952F802D0895EE0FFF1F0590C4
:0A075000F491E02D0994F894FFCF16
:10075A0000010000120000021200550000035500BB
:10076A005900010359007D0002037D009700747E41
:02077A007A33D0
:101E0000332714B734BF28E120936000309360007B
:101E100013FD04C011FD02C00C9400002FEF2DBF74
:101E200022E02EBF26E42093CA0028E12093C900B7
:101E30004BD05437E9F748D05E37D1F745D05A3701
:101E4000B9F742D05333A1F704E145D03DD050312A
:101E500039F0513131F1523171F1543761F3E8CF3A
:101E600033D0F52F31D0E52FE07860E42DD0052E6A
:101E70002BD0152E01E007BFE895E395E3956A9511
:101E8000A9F7E05803E007BFE89507D005E007BFD2
:101E9000E89503D004E11FD0D9CF77B770FDFDCF0F
:101EA000089501E107BFE8953093C90026E020932B
:101EB000CA000C9400000DE60ED008E30CD005E734
:101EC0000AD002E308D0C2CF5091C80057FFFCCF20
:101ED0005091CE0008958091C80085FBE6F70093ED
:041EE000CE00089593
:00000001FF
